:10000000F8200020DD0F0000D90F0000D90F0000FC
:1000100000000000000000000000000000000000E0
:10002000000000000000000000000000D90F0000E8
:100030000000000000000000D90F0000D90F0000F0
:10004000D90F0000D90F0000D90F0000D90F000010
:100050005D010000D90F0000D90F0000D90F00008A
:10006000D90F0000D90F0000D90F0000D90F0000F0
:10007000D90F0000D90F0000D90F0000D90F0000E0
:10008000D90F0000D90F00000D0600001D0600006A
:100090002D0600003D0600004D060000D90F0000AF
:1000A000D90F0000D90F0000D90F0000D90F0000B0
:1000B0000000000010B5064C2378002B07D1054B3B
:1000C000002B02D0044800E000BF0123237010BDC4
:1000D000040000200000000078150000084B10B557
:1000E000002B03D00749084800E000BF0748036819
:1000F000002B00D110BD064B002BFBD09847F9E731
:1001000000000000080000207815000078150000AD
:100110000000000010B51723002A06D1064B890005
:10012000CC58002C03D1C8502300180010BD130078
:100130008442FAD01D23F8E7480000201723002945
:1001400006D11F2806D8163B8340034AD3600B0014
:1001500018007047C960FFDE00180040002370B52A
:1001600001250B4C237023780F2B00D970BD29007B
:100170009940084A1069084206D01161064A9B005E
:100180009B58002B00D09847237801332370EAE76F
:10019000450000200018004048000020014B58781E
:1001A000C009704700180040022310B5044A1178B6
:1001B0000B431370034B98470028FBD110BDC0467A
:1001C000001800409D010000402307B5104A05209B
:1001D00091690B439361002301A90B700D4B984764
:1001E0000D4B0520984701230C4A11780B431370DF
:1001F0000B4B98470028FBD102000A4B1A500430E1
:100200004028FBD11022084B1A60084B984707BDC5
:1002100000040040A90E0000210E0000001800405C
:100220009D0100004800002000E100E0A90100005D
:100230000023012203604360837202330272427220
:10024000C3727047F7B50C000026237901A94E70E0
:10025000CE700B70237A05008B702078134B984773
:1002600033001F2D00D8124B0721A27A29408900A4
:10027000E67A002A01D0082216430F278E408F40CD
:100280003100EA0892009A189069B84301439161DD
:10029000617A0122002904D0AA4059690A435A61AF
:1002A000F7BDAA40596991435961F9E77D0F0000F4
:1002B00000180040F0B5002489B0009201933F235C
:1002C000002600272500069007910393039A134BFD
:1002D000012000219847B6197F41069B079A0340E9
:1002E0000A4004960597134303D0012333431E00AD
:1002F000059F019BBB4209D802D1009BB34205D8A0
:10030000009A019BB61A9F4104430D43039B5A1E5A
:100310000392DBD22000290009B0F0BD9D1300003C
:1003200010B54908040000234020A14201D210BDAD
:100330000300581C091B80B28C42F9D94020FF2BC6
:10034000F5D813800020F2E7F0B585B01E000AABA7
:100350000D00197803004B4303924027AB4217D896
:10036000002E18D10200330008001B4C3100A047BA
:100370002A0001003300194C3000A047002201235D
:10038000121A8B41140C180404430027039B1C8091
:10039000380005B0F0BD0024012EF6D10A0023007C
:1003A00021000D4EB047009001910B00020021008A
:1003B00028000A4CA047802306009B019842E7D8FA
:1003C000009A019B690FE800A047F400041BE4B207
:1003D00064033443D9E7C046B5130000B5020000FA
:1003E00037B50D4C05002378002B01D000290CD027
:1003F00001A91320094B0D7098471320084B98470B
:1004000001230020657023703EBD63780800AB4275
:10041000FAD01D20F8E7C04620000020A90E0000F9
:10042000210E0000394A030000B50800934233D082
:1004300007D8374A934214D0364A93421FD000233C
:1004400017E0354A93423AD0344A934244D0344A72
:100450009342F4D1002303290BD800F009FF502A5E
:100460002C2E0023032904D800F002FF43020507C5
:100470002C4B180000BD2C4BFBE72C4BF9E700235D
:100480000329F6D800F0F4FE37020406284BF0E703
:10049000284BEEE7284BECE700230329E9D800F0CE
:1004A000E7FE2C020406254BE3E7254BE1E7254B4D
:1004B000DFE7254BDDE7254BDBE7254BD9E70023BD
:1004C0000329D6D800F0D4FE1D020406214BD0E744
:1004D000214BCEE7214BCCE700230329C9D800F0FC
:1004E000C7FE120204061E4BC3E71E4BC1E71E4B9C
:1004F000BFE71E4BBDE70323BBE71D4BB9E71D4B11
:10050000B7E71D4BB5E71D4BB3E7C04600100042EF
:1005100000080042000C004200180042001C00428B
:10052000001400420300050003000600030007005A
:100530000300010003001E0003001F000300090068
:1005400003000A0003000B00030011000300120067
:100550000300130003000D0003000E0003000F0052
:100560000300170003001800030019000300040033
:10057000030008000300100003000C000300160035
:1005800070B586B06946094B6A4670CB70C170CBB6
:1005900070C1002399005158814202D1D8B206B0EF
:1005A00070BD0133062BF5D10020F8E710150000CF
:1005B00070B50126144B8000C4582368227E657EE6
:1005C0009B7B15401D40354204D0A368200098470E
:1005D00023689E730226354204D0E36820009847C2
:1005E00023689E731026354204D023692000984763
:1005F00023689E732026354204D063692000984703
:1006000023689E7370BDC0468800002010B500208E
:10061000014B984710BDC046B105000010B5012040
:10062000014B984710BDC046B105000010B502202F
:10063000014B984710BDC046B105000010B503201E
:10064000014B984710BDC046B105000010B504200D
:10065000014B984710BDC046B1050000F0B507003A
:1006600093B0914B3960080014000491984701221F
:10067000049B06001B680520134200D0DDE0049BAC
:1006800017301D6802231D4000D0D6E0F3181B3838
:1006900098400300854A1436116AF6B20B43136280
:1006A00023002D3302931B780CA90B703000804B74
:1006B000984730007F4B9847029B290018787E4B63
:1006C0009847E37A3E687B71631DDB7F3000BB7126
:1006D000A31DDB7FFB71E37E3B72237F7B72724B3A
:1006E00098470EAB1D80238A143002938023029A10
:1006F000DB019A4200D1B5E000D9A0E080239B0144
:100700009A4200D1A8E010230025039323680693A2
:10071000E368079363690893237E0993E31DDB7FF6
:100720000A93636805932300059A0833002A00D1D1
:100730009AE080220599520591420DD1DB7F002B72
:100740000AD15E4BC0B2256A98470EAA01005C4BE5
:1007500028009847002870D1637E002B01D0A37E2B
:10076000B3730EAD2B88079AB381069B1343089A87
:100770001343059A1343029A1343099A120213432F
:100780000A9A5207134322000832D27F002A01D16D
:1007900004321343627E217F920249020A43617F41
:1007A000E07A09020A43611DC97F49040A43A11D79
:1007B000C97F09040A43A17A01430A432189FF2919
:1007C0006AD08020400403430A4321002C31097879
:1007D000002903D13B498978890701D580210B4342
:1007E0003868C1690029FCD172603968CA69002A79
:1007F000FCD1336080230DAE3370236B72700E9387
:10080000636BF2706B60A36BB270AB60E36B140050
:10081000EB60A300E858E1B2002802D104982A4B0B
:100820009847431C05D03070000CC0B23100274BF4
:1008300098470134042CECD1002013B0F0BDC02344
:10084000029ADB019A420BD080231B029A4200D00D
:1008500059E70323039359E710230393012555E731
:100860000823FAE70823F5E7DB7F002B08D0039B7A
:100870000EAA00932B00A16A206A154DA84769E7CC
:10088000236AC0B20B930D4B9847039B0100009362
:100890000EAA2B000B98F0E7E17E002995D080216D
:1008A000C9040B4391E7C0468105000000040040E5
:1008B000A90E0000210E0000E1030000C50E00009B
:1008C0002103000000200041250400007D0F0000EE
:1008D00049030000C2791C23002A0AD00268173B92
:1008E000107EC00705D51185033B117E1942FCD04F
:1008F00000231800704710B582791C23002A0ED0FF
:1009000002680420147E173B044208D0538BDBB2EC
:100910009C061DD00224234203D01A2354831800BE
:1009200010BD034202D050831E23F8E7012003428A
:1009300002D050831323F2E71020034202D05083E9
:100940004223ECE72020034202D050834123E6E714
:10095000138D0B800023E2E7F7B506000F001500AA
:100960001720002A24D0F3790530002B20D0002452
:100970003368019380235B020121019A127E0A42AF
:1009800017D0727963189BB2395D012A16D01C000A
:1009900089B2013D30000E4BADB29847002DE9D130
:1009A000802302225B020199097E11420CD00020B3
:1009B000FEBD013B002BDFD11220F9E7FB5C0234C6
:1009C0001B02A4B21943E4E7013B002BEBD1F3E790
:1009D000D5080000094B196800290BD1EFF31080EE
:1009E000074A002805D172B6BFF35F8F054908702A
:1009F000012111701A6801321A607047240000202A
:100A00002800002000000020084B1A68013A1A60F4
:100A10001B68002B09D1064B1B78002B05D0012247
:100A2000044B1A70BFF35F8F62B67047240000203A
:100A30002800002000000020F7B50125002701ACA8
:100A4000084E21003E206570A7702570B0478022B7
:100A5000054BD2051A6021000F2027706570B04742
:100A6000F7BDC0466D0A00009844004107B58022DA
:100A700001AB1A700A785A704A789A708A7819000D
:100A8000DA70014B984707BD7D0F00001023024923
:100A9000CA681A42FCD070470008004070B50828A8
:100AA00006D800F0E5FB0805053030120B152800CC
:100AB0000024200070BD164B1C69FAE7154B164C3C
:100AC0001B6A9B059B0FDC40F3E7114B5C69F0E769
:100AD0000F4D00242B689B07EBD5104B9847242221
:100AE0002B681340042B11D120000D4B9847AC68A4
:100AF000A4B24443DDE70B4B00241B785B07D8D539
:100B0000034BDC68D5E780242402D2E7064CD0E70B
:100B10002C0000200008004000127A008D0A00001E
:100B2000C50E000050080040006CDC0270B58478EF
:100B3000027845780120402605402040802408495D
:100B4000AD010B6AC001B3432B43A343034303200E
:100B5000024004481202034013430B6270BDC046BA
:100B600000080040FFFCFFFFF8B5082806D800F099
:100B70007FFB1405050C0E1A072034001720F8BD62
:100B80000223194A116A0B4313620020F7E702237C
:100B9000154A91690B439361F7E70223124A118AC0
:100BA0000B431382F1E702230F4A918A0B4393828E
:100BB000EBE7022200240D4E0B4D33680C4F13431C
:100BC0003360AA84B847B368EB627368AB62AC84E5
:100BD000B84733689BB2AB84D7E70223054A117844
:100BE0000B431370D1E7C046000800402C000020E2
:100BF0008D0A0000440800407FB5C2221E21194B17
:100C0000D2009A60184A0024536801AD8B435360A8
:100C100001232B70E0B22900144B01349847252C96
:100C2000F8D100246B4601265C709E701C706846EB
:100C30000F4B98470F4B062098470F4B98470F4B89
:100C400029001C725C729C72DC72062320002B70DF
:100C50000B4B6E606C702C726C7298472000094BC5
:100C600098477FBD0008004000400041A90E0000E9
:100C70002D0B0000690B0000950C000000040040E3
:100C8000B50C0000590D0000014B5878C0097047A1
:100C9000000C00400823054A91690B43936101232E
:100CA000034A137011781942FCD1704700040040C8
:100CB000000C0040F8B50C784B78240206000500C3
:100CC0000443002B02D08023DB021C434B7A002B11
:100CD00002D080231B031C434B68012B12D95D1EDD
:100CE0001D400222002D06D01D02802335439B02A9
:100CF00007E0013552009A42FBD380232D02354391
:100D00005B031C430B7A002B02D080239B031C4304
:100D10000C4FB8470028FBD10B4B98470B4B1E706C
:100D2000B8470028FCD10A4B9D601D00B847002839
:100D3000FCD180226B68520213401C436C60054B4F
:100D40009847F8BD890C0000D5090000080C004048
:100D5000000C0040090A000070B50500094CA047CE
:100D60000028FBD1084B9847084B1D70A04700286E
:100D7000FCD18023064A5B0251680B435360054B4C
:100D8000984770BD890C0000D5090000040C004094
:100D9000000C0040090A0000F7B50700184EB047E4
:100DA0000028FBD1174B9847174B1F700193B04792
:100DB0000028FCD1154D164B6868C004C00E98473A
:100DC0000400019B1F706B68DB02DB0F0193114B6A
:100DD0001F70B0470028FCD1AD680F4B9847019BAE
:100DE0002D022D0C002B08D1012D04D92000290043
:100DF0000A4B984704002000FEBD0135EC40FAE79D
:100E0000890C0000D5090000040C0040000C0040D3
:100E10009D0A0000080C0040090A0000851200002D
:100E200010B50400064B9847064B074A1C708023F8
:100E30005188DB010B435380044B984710BDC046DB
:100E4000D5090000020C0040000C0040090A000017
:100E500010B504000E4B98470E4B0F4A1C700F4BF9
:100E60000F4C588859880005114059805988000F47
:100E70002140598011008022D2015C881442FCD1AB
:100E80005A8800020A4002435A80064B984710BD18
:100E9000D5090000020C0040FFF0FFFF000C0040ED
:100EA000FFBFFFFF090A000010B50C78034B2402B6
:100EB00004439847024BA4B25C8010BD510E000061
:100EC000000C004010B50400064B9847064B1C7000
:100ED000064B5C88064B2405240F98472000054BE1
:100EE000984710BDD5090000020C0040000C0040DE
:100EF000090A0000990D0000D37830B5002B35D1D8
:100F00001478802C03D0802324065B02234302251F
:100F10005478AC4306D19478002C24D18024A402C8
:100F2000234341605478013C012C01D8124C2340EA
:100F3000A0248DB2E4052C431C438462D0240D0C04
:100F400024062C431C438462D478002C0AD15B0312
:100F500003D59378012B0CD181615378013B012B90
:100F600000D8816030BDC024E402D9E7416000238D
:100F7000DEE74161F1E7C046FFFFFBFF10B503006C
:100F80000A004409C1090020814202D10449E0015C
:100F900040181F210B401E399940024B984710BD45
:100FA00000440041F90E00007047000010B5054BE9
:100FB0009847054B9847054B9847054B9847054B75
:100FC000984710BDF90B0000390A0000A90F000076
:100FD000C9010000A90F0000FEE7000021482249D6
:100FE00070B5884204D00023204CCA18A24232D3E4
:100FF00000211F4B1F4A934231D3FF211E4B1F4A32
:101000008B43936002220C25082430261C4B1D487C
:101010005A62C378FC398B431343C370C378AB4324
:101020002343C370184B987BB04306002020304305
:101030009873987BA84304439C73987B884302432E
:101040009A738023114A51680B435360104B9847A1
:10105000104B9847FEE7C55804331560C5E702C337
:10106000C9E7C046781500000000002004000020F9
:1010700004000020F80000200000000000ED00E067
:10108000FC70004100500041004800410040004118
:10109000091400009D110000024A13780133DBB2ED
:1010A00013707047440000201FB501AC2000074BAF
:1010B0009847002307206360013323720333E372F0
:1010C0002100034B019098471FBDC046310200002C
:1010D0004502000010B500220721044B0448984740
:1010E00000210720034B984710BDC04615010000A2
:1010F000991000003D01000010B5802390B06946B2
:10110000FF22DB05009300230A8101228B72CB7240
:101110000531CA7769460631CA776A460732D377FE
:1011200002AAD3770BAA13702D226A441370694662
:101130006A4601931382D3761376137753760A9314
:1011400005934B77E1235B02089380235B030393B2
:101150000D4B13220C930D4B8A760D9301235B42AA
:101160000E930F930A4C6A460A4920000A4B98478F
:101170000028F7D12368DA69002AFCD11968023205
:101180000A431A6010B010BD0200160002001700DA
:101190009C000020001400425D060000F0B5254BC5
:1011A00089B09847244B9847244B9847244B98473D
:1011B0000123244D2B70BFF35F8F62B60B26019382
:1011C0000023214A13706B461B792B70BFF35F8F8E
:1011D00062B61E4B0493049B591E0491002BFAD156
:1011E00072B6BFF35F8F2B70194F10783900194B0F
:1011F0000A22C0B29847184C39005022174F2000DD
:10120000B847174B3200174905A8984705A932007F
:101210002000B84702AB9F1D39002000124B9847B1
:101220000028CDD139882000104B98470028F9D1EB
:10123000C6E7C046AD0F0000F9100000A91000007D
:10124000D510000000000020440000205099070045
:10125000A8000020811400009C0000205909000013
:101260008914000028150000F7080000D5080000C8
:1012700002B4714649084900095C49008E4402BC29
:101280007047C046002243088B4274D303098B4247
:101290005FD3030A8B4244D3030B8B4228D3030C46
:1012A0008B420DD3FF22090212BA030C8B4202D3E8
:1012B0001212090265D0030B8B4219D300E0090A10
:1012C000C30B8B4201D3CB03C01A5241830B8B4219
:1012D00001D38B03C01A5241430B8B4201D34B0302
:1012E000C01A5241030B8B4201D30B03C01A524167
:1012F000C30A8B4201D3CB02C01A5241830A8B42EC
:1013000001D38B02C01A5241430A8B4201D34B02D4
:10131000C01A5241030A8B4201D30B02C01A524138
:10132000CDD2C3098B4201D3CB01C01A52418309EC
:101330008B4201D38B01C01A524143098B4201D326
:101340004B01C01A524103098B4201D30B01C01A51
:101350005241C3088B4201D3CB00C01A52418308CB
:101360008B4201D38B00C01A524143088B4201D3F8
:101370004B00C01A5241411A00D201465241104658
:101380007047FFE701B5002000F006F802BDC04637
:101390000029F7D076E770477047C0469140031C9C
:1013A00090409C46203A9340194352426346D340B2
:1013B00019437047F0B5CE46474615042D0C2E0054
:1013C00080B50704140C3F0C9946030C7E435D4323
:1013D000674363437F19340CE4199C46A54203D943
:1013E00080235B029846C4444B4651434343360432
:1013F000360C250C24046544A419591849192000F9
:101400000CBC90469946F0BD70B500260C4D0D4CB5
:10141000641BA410A64209D1002600F09DF80A4DD5
:101420000A4C641BA410A64205D170BDB300EB5852
:1014300098470136EEE7B300EB5898470136F2E7DC
:1014400064150000641500006415000068150000B4
:10145000931E10B50C00222B04D900231C000B7026
:10146000200010BD0A2A09D1002807DA2D230B70AD
:1014700001214042611800F011F8F1E70021F9E77D
:1014800010B5FFF7E5FF10BD002310B59A4200D15B
:1014900010BDCC5CC4540133F8E70000F0B5170070
:1014A0008FB0252206000D0004A81849FFF7ECFFB5
:1014B00004AABB1E00240392222B05D92C70250000
:1014C00028000FB0F0BD019C631C0193EB18009342
:1014D0003000013B39000293FFF75AFF039B029A49
:1014E0005B5C300013703900FFF7CCFE061EEAD1BA
:1014F000009B18702B005A1B9442E1DD1A78295D7D
:1015000019702A550133013CF5E7C0463315000038
:1015100000080042000C004200100042001400428B
:1015200000180042001C0042202070756C7365207A
:101530000D0A003031323334353637383961626361
:101540006465666768696A6B6C6D6E6F70717273E3
:101550007475767778797A00F8B5C046F8BC08BC1F
:101560009E467047DD000000F8B5C046F8BC08BCD8
:081570009E467047B500000023
:04157800010000006E
:0400000300000FDD0D
:00000001FF
