:100000007022002095110000911100009111000054
:1000100000000000000000000000000000000000E0
:10002000000000000000000000000000911100002E
:10003000000000000000000091110000911100007C
:100040009111000091110000911100009111000028
:100050006101000091110000911100009111000058
:100060009111000091110000911100009111000008
:1000700091110000911100009111000091110000F8
:1000800091110000911100009D060000AD060000D6
:10009000BD060000CD060000DD0600009111000045
:1000A00091110000911100009111000091110000C8
:1000B0000000000010B5064C2378002B07D1054B3B
:1000C000002B02D0044800E000BF0123237010BDC4
:1000D0006C0000200000000044510000084B10B5E7
:1000E000002B03D00749084800E000BF0748036819
:1000F000002B00D110BD064B002BFBD09847F9E731
:100100000000000070000020445100004451000035
:10011000000000001723002A01D0180070478B0050
:10012000064A9B58002B03D0834205D01D23F4E7D9
:10013000890088500023F0E70023EEE7C400002088
:100140001723002901D01800704700221F2800D86B
:10015000024A01238340D3600023F4E700180040E3
:1001600070B50022104B1A70002310491F25104E45
:100170000D4C0AE00D4908E023780133DBB223700F
:100180000F2B10D800211F2BF4D928001840012272
:10019000824008691042EFD00A619B009B59002BF6
:1001A000EAD09847E8E770BDC00000200018004082
:1001B000C4000020044A137802210B4313705378C3
:1001C0005BB2002BFBDB70470018004000B583B02A
:1001D000124A936940210B43936101A900230B70DC
:1001E00005200F4B984705200E4B98470E4A137871
:1001F00001210B43137053785BB2002BFBDB0B4BDD
:1002000019004031002204C39942FCD11022084B4E
:100210001A60084B984703B000BDC0460004004078
:1002200039100000AD0F000000180040C40000208D
:1002300000E100E0B50100000023036043600122FB
:100240000272427283720233C3727047F0B583B098
:1002500005000C0001A900234B70CB7023790B70B3
:10026000237A8B702078154B984700201F2D00D8DB
:10027000134807222A409200E77AA37A002B01D084
:1002800008231F43EB089B00C31899690F2696406B
:10029000B14397403A000A439A61637A002B06D132
:1002A00043690122AA409343436103B0F0BD426910
:1002B0000123AB4013434361F7E7C046311100000F
:1002C00000180040F0B5DE4657464E464546E0B5BC
:1002D00087B08046049116001F00002200230021F1
:1002E0008B463F2401202100009601975C46039431
:1002F0004446059413E02024641A0500E540A8460E
:1003000014E0009C019D121BAB415C464D462C4302
:10031000A346039C45462C430394013925D320244E
:1003200064420C19E7D40500A540A84604008C409F
:10033000A14692185B4114001D00059E4F463E40A9
:10034000B446049E47463E40B246664657463E4344
:1003500003D00600264332002B00009C019D9D42E5
:10036000DBD8CED19442D8D8CBE7039B58461900AE
:1003700007B03CBC90469946A246AB46F0BD10B5CE
:10038000490840230024814202D2180010BD1C00FD
:10039000091A631C9BB28842F9D94023FF2CF4D878
:1003A00014800023F1E70000F0B583B00F001600C1
:1003B00008AA117804004C434022BC4202D9100024
:1003C00003B0F0BD002B14D1020008000021194C2D
:1003D000A04701003A0000230020174CA04700224C
:1003E0000123121A8B41120C1B041A433280002283
:1003F000E5E70022012BF9D10A00002300210D4C72
:10040000A04702000B0000920193380000210A4C23
:10041000A047050080239B0140229842CFD8790F46
:10042000F800009A019BA047EA00821AD2B2520358
:100430002A43DBE761160000C502000010B582B058
:1004400004000E4B1B78002B07D0002905D10B4B65
:100450005B78834210D01D200CE001A90C701320A2
:10046000074B98471320074B9847044B5C700122B9
:100470001A70002002B010BD0020FBE788000020A9
:1004800039100000AD0F0000404B984231D00AD91E
:100490003F4B98424DD03F4B98425AD03E4B9842EA
:1004A00037D0002070473D4B98420CD03C4B9842CF
:1004B000F7D1012917D000295DD0022915D00329D1
:1004C00015D00020EEE7012907D0002951D00229DC
:1004D00005D0032905D00020E4E73248E2E732489E
:1004E000E0E73248DEE73248DCE73248DAE7324814
:1004F000D8E7012907D000293FD0022905D00329D8
:1005000005D00020CEE72D48CCE72D48CAE72D487E
:10051000C8E7012907D0002931D0022905D00329D5
:1005200005D00020BEE72848BCE72848BAE728489D
:10053000B8E7012907D0002923D0022905D00329D3
:1005400005D00020AEE72348ACE72348AAE72348BC
:10055000A8E7012907D0002915D0022905D00329D1
:1005600005D000209EE71E489CE71E489AE71E48DB
:1005700098E71E4896E7032094E71D4892E71D4838
:1005800090E71D488EE71D488CE7C04600100042EA
:1005900000180042001C0042001400420008004203
:1005A000000C0042030005000300060003000700E2
:1005B0000300010003001E0003001F0003000900E8
:1005C00003000A0003000B000300110003001200E7
:1005D0000300130003000D0003000E0003000F00D2
:1005E00003001700030018000300190003000400B3
:1005F000030008000300100003000C0003001600B5
:1006000030B587B00B4B6A4632CB32C232CB32C2E6
:10061000009B83420BD001239A00694652588242C4
:1006200006D00133062BF7D1002007B030BD0023E0
:10063000D8B2FAE7F84E000070B58000164BC458E7
:1006400023689D7B227E637E13401D40EB0706D40A
:10065000AB070BD4EB0610D4AB0615D470BD20004D
:10066000A3689847012322689373F1E72000E368A9
:100670009847022322689373ECE720002369984788
:10068000102322689373E7E7200063699847236883
:1006900020229A73E2E7C0460401002010B5002032
:1006A000014B984710BDC0463906000010B5012027
:1006B000014B984710BDC0463906000010B5022016
:1006C000014B984710BDC0463906000010B5032005
:1006D000014B984710BDC0463906000010B50420F4
:1006E000014B984710BDC04639060000F0B5DE4604
:1006F00057464E464546E0B591B005000C00160041
:1007000029600800AB4B9847020023680520DB07EF
:1007100006D511B03CBC90469946A246AB46F0BD0A
:10072000236817309B07F4D4A349086A971C012358
:10073000BB4003430B620FA92D27F35D0B701432EE
:10074000D3B2029318009D4B984702989C4B984750
:10075000F05D00219B4B9847F37A6B712423F35C87
:10076000AB712523F35CEB71F37E2B72337F6B72DD
:100770002B68984618008F4B9847143000220E23A0
:1007800006A98C4663441A80328A02928023DB01D8
:100790009A4200D19BE00FD9C023DB01029A9A4212
:1007A00000D18FE080231B029A4200D0FDE003239A
:1007B00006930023079308E080239B019A4200D010
:1007C000F3E0102306930F3B079333689B46F368CF
:1007D000059373690493337E03932623F35C9A464F
:1007E00073689946002B00D19DE080235B059945F5
:1007F00000D181E0737E002B02D0B37E424693731A
:100800000E2306AA944663441B88424693815B46A6
:10081000059A1343049A13434A461343029F1F4306
:10082000039B1B021F4353465B071F432723F35CB5
:10083000002B01D104331F43737E9B02327F52028F
:100840001343727F120213432422B25C52041343F7
:100850002522B25C12041343B17AF27A1143194390
:100860003389FF2B00D182E08022520417431943C1
:100870002C23F35C002B03D1534B9B789B0701D5B2
:1008800080231F432A68D369002BFCD1434659605B
:100890002A68D369002BFCD143461F600EAB80222F
:1008A0001A7000225A70DA709A70336B0A93736B65
:1008B0000B93B36B0C93F36B02930D9300270AAD6C
:1008C000424E63E008230693073B07937DE73368B6
:1008D0009B46F368059373690493337E0393262341
:1008E000F35C9A4673689946002B18D080235B0509
:1008F000994501D0002025E02723F35C002B00D090
:1009000078E7336A1F00C0B2314B984701000E22CE
:1009100006AB9C46624438002E4B984712E00823F1
:100920000693002307932723F35C002B0ED0069B2E
:100930000093079B0E2206A98C466244B16A306A76
:10094000254FB847002800D0E3E653E7336A1F007D
:10095000C0B21F4B98470100069B0093079B0E22D5
:1009600006A88446624438001B4FB847EAE7F37E86
:10097000002B00D17CE78023DB041F4378E72000B5
:10098000164B984707E00137042F0CD0F9B2BB0093
:1009900058590028F3D0431CF5D00EA90870000C5C
:1009A000C0B2B047EFE70020B3E610230693002360
:1009B00007930AE701060000000400403910000018
:1009C000AD0F00003D040000002000413111000087
:1009D000551000007F030000A903000089040000F7
:1009E000C2791C23002A01D1180070470268107ECA
:1009F000173BC007F8D511850221137E0B42FCD0AE
:100A00000023F1E782791C23002A01D118007047E6
:100A10000268107E173B4007F8D5538BDBB298066F
:100A20001DD0980703D5022353831833EEE75807E8
:100A300003D5042353831A33E8E7D80703D50123EA
:100A400053831233E2E7D80603D51023538332339E
:100A5000DCE79B0603D5202353832133D6E7138D90
:100A60000B800023D2E70000F0B5CE46474680B5A4
:100A700083B0050001911720002A04D103B00CBCFB
:100A800090469946F0BDEB790530002BF6D02C68E6
:100A9000013A93B2994600260127204B984611E06F
:100AA000731C9BB2019A915D6A79012A17D089B2B1
:100AB0001E0028001A4B98474B46013B9BB29946B3
:100AC000434513D0237E3B42EAD1144B227E3A4267
:100AD000E6D1012B19D0013B002BF7D1E0E702361C
:100AE000B6B2019AD35C1B021943E2E7237E9B074F
:100AF0000DD40A4B0221227E0A420AD1012B0AD0D0
:100B0000013B002BF7D10020B8E71220B6E7002008
:100B1000B4E70020B2E71220B0E7C046FFFF0000B4
:100B2000E10900000C4B1B68002B06D1EFF310838A
:100B3000002B07D00022094B1A70074A13680133B3
:100B40001360704772B6BFF35F8F0022044B1A70B8
:100B50000132024B1A70F0E78C0000209000002058
:100B600000000020084B1A68013A1A601B68002B2D
:100B700009D1064B1B78002B05D00122044B1A70BB
:100B8000BFF35F8F62B670478C000020900000209A
:100B900000000020F0B583B001AC0125657000278E
:100BA000A770257021003E20064EB0478022D20556
:100BB000054B9A612770657021000F20B04703B084
:100BC000F0BDC046CD0B00008044004100B583B0AD
:100BD00001AB80221A700A785A704A789A708A7823
:100BE000DA701900014B984703B000BD31110000C5
:100BF00010B5082803D880001C4B1B589F460020C6
:100C000032E01B4B18692FE01A4B1B6A9B059B0FA8
:100C10001948D84028E0164B586925E0144B1B684A
:100C200000209B0720D513491022CB681A42FCD024
:100C30000F4B1A6824231340042B01D00F4813E0F4
:100C400000200F4B98470A4B9B681B041B0C584312
:100C50000AE05023074AD35C00205B0704D5044B0D
:100C6000D86801E08020000210BDC046104F00008F
:100C7000940000200008004000127A00006CDC02A2
:100C80005510000070B50C490B6A047885784078DF
:100C90000122104080014026B34303432A40D20181
:100CA000802083431343032222401202034803405F
:100CB00013430B6270BDC04600080040FFFCFFFFFD
:100CC000082803D88000254B1B589F46172044E076
:100CD000234A136A02210B43136200203DE0204A9D
:100CE000936902210B439361002036E01C4A138A6A
:100CF00002210B43138200202FE0194A938A02211C
:100D00000B439382002028E016490B68022213430C
:100D10000B60134B9A8419000E32CB681A42FCD038
:100D2000104A91680E4BD96252689A6200229A84E6
:100D300019001032CB681A42FCD00A4B1B689BB2D8
:100D4000074A9384002008E0054944228B5C022076
:100D500003438B54002000E000207047344F000014
:100D6000000800409400002030B585B0C222D200B7
:100D70001A4B9A601A4A53681E218B435360012311
:100D80006A4613700024174DE0B26946A847013443
:100D9000252CF9D103A80024447001258570047026
:100DA000114B98470620114B9847114B9847114B10
:100DB0001C725C729C72DC7201956B465C7006233F
:100DC0006A46137014725472694600200A4B9847A1
:100DD00000200A4B984705B030BDC04600080040CF
:100DE0000040004139100000850C0000C10C0000DB
:100DF000010E000000040040250E0000DD0E000082
:100E0000064A936908210B4393610122044B1A702F
:100E100019000B781342FCD17047C0460004004013
:100E2000000C004070B5060004000D782D0205434B
:100E30004B78002B02D08023DB021D434B7A002B22
:100E400002D080231B031D434868012810D9431E8C
:100E5000184234D1022830D90223002201325B002B
:100E60009842FBD812023243140080235B031D43D7
:100E70000B7A002B02D080239B031D43134A537827
:100E80005BB2002BFBDB124B9847124B1E700F4AD4
:100E900053785BB2002BFBDB0C4B9C601A00537841
:100EA0005BB2002BFBDB094A5368802149020B40EF
:100EB0001D435560084B984770BD0022D2E70402DD
:100EC000344380239B021D43D2E7C046000C004000
:100ED000250B0000080C0040650B000010B5040055
:100EE0000B4A53785BB2002BFBDB0A4B98470A4B4B
:100EF0001C70074A53785BB2002BFBDB044A516835
:100F000080235B020B435360044B984710BDC046DF
:100F1000000C0040250B0000040C0040650B000095
:100F200070B504001A4A53785BB2002BFBDB194BF7
:100F30009847194B1C70164A53785BB2002BFBDBA9
:100F4000134E7068C004C00E144B98470500124B36
:100F50001C707668F602F60F114B1C700C4A537821
:100F60005BB2002BFBDB0A4B9C682402240C0D4B6C
:100F70009847002E07D1012C07D9210028000A4BE1
:100F80009847050001E00134E540280070BDC046E7
:100F9000000C0040250B0000040C0040F10B000089
:100FA000080C0040650B00004915000010B5040056
:100FB000064B9847064B1C70064A53888021C9018E
:100FC0000B435380044B984710BDC046250B0000CF
:100FD000020C0040000C0040650B000010B504003E
:100FE0000F4B98470F4B1C700F4A53881B05180F67
:100FF00053880E490B40538053880D490B40538052
:1010000011008022D2014B881342FCD106494A8844
:1010100003020648024013434B80064B984710BD1D
:10102000250B0000020C0040000C0040FFF0FFFF09
:10103000FFBFFFFF650B000010B50C7824020443CE
:10104000024B9847A4B2024B5C8010BDDD0F00003C
:10105000000C004010B50400064B9847064B1C706E
:10106000064B5C882405240F054B98472000054B50
:10107000984710BD250B0000020C0040000C0040FA
:10108000650B0000210F000030B5D378002B35D15F
:101090001378802B29D01B068024640223435478C4
:1010A0000225AC4306D19478002C20D18024A402E0
:1010B000234341605478013C012C1CD90D042D0CB4
:1010C000A024E4052C431C4384620D0CD024240688
:1010D0002C431C438462D478002C22D15B031CD5A2
:1010E0009378012B1ED0416117E00023D7E7C0247D
:1010F000E4022343DDE70D4C2340DFE741600C04AD
:10110000240CA023DB05234383620C0CD0231B0695
:1011100023438362D378002B03D15378013B012B07
:1011200002D930BD8161F8E78160FAE7FFFFFBFF7C
:1011300010B50A00C1090023002904D14309DB01CD
:1011400005498C4663441F2420400121814018003A
:10115000024B984710BDC046004400418910000072
:101160007047000010B5054B9847054B9847054B55
:101170009847054B9847054B984710BD690D0000EF
:10118000950B000061110000CD010000611100000D
:10119000FEE70000F8B52A4A2A4B9A4211D01A00FD
:1011A000294B9A420DD2294A03339B1A9B080133DB
:1011B0009B000022234822498C58845004329A42D2
:1011C000FAD1234A234B9A420AD2D34321495B18CE
:1011D00003218B4304339B18002102C29342FCD1AC
:1011E0001D4AFF211D4B8B439360FD3990235B000B
:1011F0001B4AD1501B4AD3780325AB430224234317
:10120000D370D3780C27BB4308263343D370164BD7
:10121000987B30229043202210439873997BB943E6
:10122000314399739A7BAA4322439A730F4A5368B6
:1012300080210B4353600E4B98470E4B9847FEE7B7
:1012400044510000000000206C0000200400002039
:101250006C0000206C02002000ED00E000000000A7
:101260000070004100500041004800410040004132
:10127000D5250000C51300000300064A1268002AA5
:1012800004D0044A1068C318136070470249014A29
:101290001160F6E7AC00002070220020094B1B6AA9
:1012A0001B0609D48022D205074B5A61074A1378DE
:1012B0000133DBB2137070478022D205024B9A6172
:1012C000F4E7C0460044004180440041B4000020DF
:1012D00010B584B001AC2000074B98470723019359
:1012E0000023636001332372E37221000720034B64
:1012F000984704B010BDC046390200004D020000FE
:1013000010B5002207210448044B9847002107200C
:10131000034B984710BDC0469D1200001501000008
:101320004101000030B591B08023DB05009300231C
:101330000193FF2269460A8100228B72CB72012140
:1013400024206C462154013021542531635401314D
:1013500063540A9305316354013163540593238226
:10136000E3762276227762761323A3766277E123EF
:101370005B02089380235B0303930D4B0C930D4B8F
:101380000D9301235B420E930F930B4D0B4C6A465A
:101390000B492800A0470028F9D1074B1A68D369E8
:1013A000002BFCD1136802210B43136011B030BD38
:1013B000020016000200170018010020ED060000D0
:1013C00000140042F0B5DE4657464E464546E0B5AD
:1013D00089B0414B9847414B9847414B9847414B07
:1013E00098470122404B1A70BFF35F8F62B63F4BA4
:1013F0009A46002398469B463B4B994653465A468D
:101400001A704B4601221A70BFF35F8F62B6384BD9
:101410000093009B5A1E0092002BFAD172B6BFF3C4
:101420005F8F314B42461A70304D2878C0B2314C34
:10143000314B9847314A324B324EB04706000F00CD
:10144000314B1868314B984702000B0030003900CF
:101450002F4EB0472F4B984720602878C0B22E4EB1
:101460000A2231002D4B98472D4D20682D4B98476F
:101470002D4B98472A0002212C4B98472C4C782260
:10148000310020002B4EB04701A92B4B0A0081CB25
:1014900081C21B8813800A222000B047C82229007D
:1014A0002000B04704A9254B0A00A1CBA1C20C2201
:1014B0002000B0471E2169442000214B9847002896
:1014C0009CD11E256D441A4C1E4E29882000B04721
:1014D0000028FAD192E7C0466511000025130000EC
:1014E000D11200000113000000000020B400002011
:1014F00040420F00B0000020FD2200000AD7A37078
:101500003DEA4040FD1D0000040000208123000052
:101510009517000025240000240100204D2600001E
:101520009C010020B5160000F5160000C125000042
:1015300018010020690A0000584F0000644F0000A5
:10154000050A0000E1090000002243088B4274D321
:1015500003098B425FD3030A8B4244D3030B8B42B4
:1015600028D3030C8B420DD3FF22090212BA030CBD
:101570008B4202D31212090265D0030B8B4219D39E
:1015800000E0090AC30B8B4201D3CB03C01A5241BE
:10159000830B8B4201D38B03C01A5241430B8B4206
:1015A00001D34B03C01A5241030B8B4201D30B03EF
:1015B000C01A5241C30A8B4201D3CB02C01A524116
:1015C000830A8B4201D38B02C01A5241430A8B42D9
:1015D00001D34B02C01A5241030A8B4201D30B02C2
:1015E000C01A5241CDD2C3098B4201D3CB01C01ADC
:1015F000524183098B4201D38B01C01A52414309E6
:101600008B4201D34B01C01A524103098B4201D3D3
:101610000B01C01A5241C3088B4201D3CB00C01A40
:10162000524183088B4201D38B00C01A52414308B8
:101630008B4201D34B00C01A5241411A00D20146DD
:10164000524110467047FFE701B5002000F006F850
:1016500002BDC0460029F7D076E770477047C04604
:10166000F0B5CE46474615042D0C2E0080B5070474
:10167000140C3F0C9946030C7E435D436743634360
:101680007F19340CE4199C46A54203D980235B02E0
:101690009846C4444B46514343433604360C250C0C
:1016A00024046544A4195918491920000CBC90461B
:1016B0009946F0BD41024300C20F490A1B0E0020AB
:1016C0007E2B0DDD9D2B0CDC802000040143952B2F
:1016D0000ADC9620C31AD9404842002A00D10800EB
:1016E0007047034BD018FBE7963B9940F4E7C046A0
:1016F000FFFFFF7F70B5002830D0C317C4185C40CF
:10170000C50F200000F018FF9E231B1A962B0DDC3E
:101710009622D21A94402A006402640ADBB2640260
:10172000DB05600AD2071843104370BD992B19DC02
:101730009922D21A002A29DD94402200144C144028
:10174000510704D00F210A40042A00D0043462015A
:1017500013D4A401640ADBB22A00E0E700220023CC
:101760000024DCE705222100121AD140B922D21A46
:101770009440621E94410C43DAE7054B2A001C405A
:101780009F23A4011B1A640ADBB2C8E72200D5E735
:10179000FFFFFFFBF0B557464546DE464E46E0B537
:1017A0004C000E0387B0834692461D008046360BE0
:1017B000640DCF0F002C4FD06F4B9C4235D080234F
:1017C000420F1B04F600134333439946C300984667
:1017D0006A4B00269C460023644403932B031B0B97
:1017E0009B466B00ED0F50465B0D01955ED0624A43
:1017F000934253D05A46D1008022400F1204024334
:101800000A4393465246D1005C4A94460022634400
:101810003800684084460290E41A16430F2E00D91F
:10182000B4E0574BB6009B599F460300334399469B
:101830006CD100239846023308260393CEE7CB46AB
:101840004146039A0197022A65D1019B4A4C9C4666
:101850000023002298466BE00300334399464ED0A4
:10186000002E00D1BCE1300000F066FE03000B3B0F
:101870001C2B00DDACE11D22D31A5A460100DA40D0
:1018800008398E401300334399465B468B40984697
:1018900000233C4C0026241A03939FE751465A46E6
:1018A000114329D1002293460232B1E75946014340
:1018B0001ED05B46002B00D19EE1584600F03CFE56
:1018C00003000B3B1C2B00DD8FE102005946083A58
:1018D00091408B461D21CB1A5146D9400B005946E9
:1018E0000B4351469B469140264B00221B1A8FE723
:1018F000002301229B468BE75146032288E7002301
:101900009846013304260024039367E70323B14676
:1019100003930C2662E7032A00D15CE2019B012AB3
:1019200000D0E4E113409C460023002400229846A6
:1019300000211203130B0A0D12051A432305124C42
:1019400040462240134362465B00D2075B081343C4
:10195000190007B03CBC90469946A246AB46F0BD84
:10196000002380229C4612039846034CE0E70023A4
:10197000014C00229846DBE7FF07000001FCFFFF57
:10198000704F00000DFCFFFFFFFF0F80D94500D90D
:1019900039E100D134E1002346464D469A46013CE8
:1019A0005B460A0E1B021A430B02170C0393130427
:1019B0001B0C3900280090460193FFF7C5FD02007B
:1019C000019B83465A43280039009146FFF742FEA7
:1019D000350C09040D43A9450DD95B464544013B2F
:1019E000A84500D93AE1A94500D837E102235B4276
:1019F0009C464544E3444B46EB1A390018000493D7
:101A0000FFF7A2FD019B0500434339000498994666
:101A1000FFF720FE330409041B0C0B43994509D939
:101A200043446A1E984500D91AE1994500D817E148
:101A3000023D43444A469B1A5A4612042A430399DC
:101A40009346100C0A0C914609045A46090C4E465E
:101A50000D001204120C454305915143724370432B
:101A600052190E0CB218954203D980256D02AC466E
:101A70006044150C09041204090C281852188342FA
:101A800000D2CEE000D1C8E01D1A53469E1AB245DE
:101A900092415242AB1A9A46984500D117E139005B
:101AA0001800FFF751FD019B0500434339005046E4
:101AB0000493FFF7CFFD04980B04310C19438842BF
:101AC00009D941446B1E884500D907E1884200D8F6
:101AD00004E1023D4144049BCB1A180039000493F1
:101AE000FFF732FD019B824643433900049801937E
:101AF000FFF7B0FD01980B043104090C194388422B
:101B00000DD953464144013B884500D9E8E088425D
:101B100000D8E5E002235B429C464144E244019B3D
:101B20002D04CE1A51462943059D4F462A000B0429
:101B3000080C1B0C5A4345437B4378435B19170C35
:101B4000FB189D4203D980256D02AC4660441D0CF4
:101B500012041B04120C28189B18864200D293E032
:101B600000D18EE001231943A04BE318002B00DCC9
:101B700099E04A0700D09EE05A46D20106D55A465F
:101B80009B4B1A4080239346DB00E318994A93420B
:101B900068DD0123029A984C1A4000239446984627
:101BA0000022C5E680224B46120313420AD05B4650
:101BB000134206D11A431203120BAC4688468E4CD0
:101BC000B6E64B461A431203120BBC468A4CAFE6EC
:101BD00003005A46283B9A4000239146984657E610
:101BE000584600F0A9FC203040E603005246283B4E
:101BF0009A400021934677E600F09EFC20305FE695
:101C0000884500D2C7E64B46DE075D0843465B08C1
:101C10001E434346DB079A46C2E60025924500D3A1
:101C200033E7039E5946B446E244B245AD416D42A6
:101C30004544EB180139984507D2984200D97FE016
:101C400000D1BCE01D1A8B461FE79845FAD1039DD1
:101C50005545F2D943468B461D1A16E79B46CAE600
:101C60001500E7E65A46C90852070A435B05904645
:101C70005C0D5A460123029952021940120B8C4600
:101C800056E6002B00D16FE746444A1EB04529D9DD
:101C90001100864200D065E7039A934200D061E7C5
:101CA00062E7012149420120C21A382A21DD029B44
:101CB00003409C4638E60F220A40042A00D15BE725
:101CC0000A00111D914292415242934454E7474BFE
:101CD000E318002BE5DD01225242F2E71D00FAE68F
:101CE0009A461CE7B04239D86ED011003AE7029309
:101CF0003AE71F2A3CDC20239B1A0C0058469940E7
:101D000098404B1E99415B46D440D3402043084342
:101D10001A00430709D00F230340042B05D001000C
:101D2000081D88429B415B42D21813023AD5012319
:101D3000029A01241A400023944698460022F7E5AF
:101D4000022149428C46039DE344AC46E244AA4545
:101D5000AD416D424544ED182D1A96E68A1E039951
:101D60004D008D42894149424144761803958FE7E1
:101D70001F204042C31A5846D8400300202A28D0CA
:101D800040205D46821A954029434A1E91411943DD
:101D9000072300220B4009D00F2300220B4008002C
:101DA000042BBDD1010053075202120BC90819437D
:101DB000012388460299002419408C46B8E5524513
:101DC000BED88B46002560E6039D9D42C6D3110018
:101DD00062E70025D8E780225B4612031A43019B85
:101DE0001203120B9C468846034CA1E5FF0300003A
:101DF000FFFFFFFEFE070000FF070000F0B557469B
:101E00004546DE464E46E0B50C0398464E00230B91
:101E100087B0070092469B46760DCD0F002E6BD003
:101E20006D4B9E4235D080245B46420F2404DB007C
:101E300014431C43C3009946684BA3469C460023A9
:101E400000276644029343461C035A00DB0F5046AA
:101E5000240B520D984600D176E05F4B9A426DD02C
:101E60008023410F1B040B435C49E4008C461C4358
:101E7000C300002062444146B6186940721C0191BB
:101E8000944607430F2F00D9B0E0554ABF00D259FE
:101E900097465B460343994600D087E000239B4664
:101EA000023308270293CEE742460192022867D008
:101EB000032800D10EE2012800D062E100230024B3
:101EC0000022994601990140CDB2002112030B0D69
:101ED000120B1B051343434A240513401C436400A3
:101EE000ED0764082C434846210007B03CBC9046EF
:101EF0009946A246AB46F0BD034399464FD05B4698
:101F0000002B00D189E1584600F016FB03000B3B83
:101F10001C2B00DD7AE11D22D31A3A0001005C4639
:101F2000DA4008398C4013008F4023439B46B94662
:101F300000232D4E0027361A029384E7534623438D
:101F40002AD10024022096E75346234320D0002CB8
:101F500000D157E1200000F0EFFA03000B3B1C2BEF
:101F600000DD49E11D21CB1A51460200D9405346FC
:101F7000083A944093400C431B4A121A00207AE717
:101F80000125019B144C1D400023002299469CE72B
:101F90000024002201206EE7534603206BE7002354
:101FA0009B4601330427002602934CE70323814616
:101FB0000C27029347E7802200230025120399464D
:101FC000054C82E75C464B4602986FE75C464B4601
:101FD000019502986AE7C046FF07000001FCFFFF79
:101FE000B04F0000FFFF0F800DFCFFFF4A4649463F
:101FF000170C1A0C1B041B0C08041900000C41439D
:102000001500884619007D437943039589462900C8
:10201000150045434D44029545462D0CAA46029DA8
:102020005544A94506D98A46802149028946CA44B1
:1020300051460391290C0491414609042D04090CD1
:1020400088462900250C24044144240C05912100D4
:1020500041438846210079438A46684341465044BB
:102060008146080C48446F43824503D980214902C8
:1020700089464F44010C8946390049440291414642
:102080000F0404993F0C88460004C019804441465F
:10209000049159460F0C0904090C884659438A4695
:1020A00039005143894641464A435146090C8B4603
:1020B0007B43D2185A44934203D980235B029B4648
:1020C000D94451460904090C8A46414661437C4380
:1020D000130C12044B445244A1468A463C0041462C
:1020E0006C434D4351464D440F0C7D19A94503D90E
:1020F0008021490288464444049F0399B8464144DC
:102100008B468345804141428846514608042F044E
:10211000000C3F1858460299101889469042924187
:102120004F44BA46524299469346C244D144CB44A6
:102130008F42BF41C245894199459B419345924198
:102140007F4249422D0C52420F435B4213437F1999
:10215000FF185B463C19DB0D059A64021C434302E1
:1021600013435D1EAB415A46C00D03435202134355
:10217000E20156D501205A0803401343E2071343F6
:1021800064085A48604400284DDD5A0709D00F22E0
:102190001A40042A05D01A1D9A429B415B42E4185A
:1021A0001300E20104D58020514AC000144060446D
:1021B000504A904200DDE3E60125DB0862071A433E
:1021C0006402019B9146220B4405640D1D407CE690
:1021D000802259461203114208D0144206D12243EC
:1021E0001203120B45469946434C6EE65B461A4372
:1021F0001203120B404C68E603005446283B9C40F7
:102200000023B9E600F098F92030A6E60300283B49
:102210009F400023BB4699468AE600F08DF92030A6
:1022200074E6B446ADE701252A1A382A06DD019B7B
:1022300000241D4000230022994646E61F2A21DC87
:1022400020252000AD1A1E00AB40A840D6405D1EE0
:10225000AB4130431843D440430709D00F23034018
:10226000042B05D00300181D98429B415B42E418E3
:10227000230221D50125019B01241D4000230022BA
:10228000994622E61F2521006D42281AC140080008
:10229000202A1DD05F35AA1A944023435C1EA34117
:1022A000072503431D400022002D09D00F220024E2
:1022B0001A401800042AD6D1030065076402220BD5
:1022C000DB082B4301259946019B00241D40FCE5BA
:1022D0000024E2E780220125120322430199120320
:1022E000120B0D409946044CEFE5C046FF03000079
:1022F000FFFFFFFEFE070000FF07000070B500288B
:1023000030D0C317C4185C40C50F200000F014F98A
:10231000174B184A1B1AD21A1F2A18DD164AD21A4E
:102320009440002224035B05240B5B0D0021100068
:1023300024030A0D240B12052243104C1B052240D6
:1023400013435B00ED075B082B43190070BD2100B0
:1023500091400A000B21081AC4405B052403240B9A
:102360005B0DE3E70025002300240022DEE7C046E2
:102370001E0400003304000013040000FFFF0F8060
:102380004100090E4B1C70B5DBB24602750AC40F42
:10239000012B14DDE0239B006D07360BCB180021C9
:1023A0000A0D280012051C4D32435B052A405B08CC
:1023B00013435B00E4075B082343190070BD002949
:1023C00014D1002D1ED0280000F0B6F80A281CDC1D
:1023D0000B232A001B1ADA40030015339D400F4BD4
:1023E00012031B1A5B05160B5B0DD8E7002D06D0F8
:1023F000320B802636036D071643094BCFE7084B97
:102400000026CCE700230026C9E703002A000B3B87
:102410009A400025E3E7C046FFFF0F8089030000D4
:10242000FF070000F0B54C00640D0B03621C450F64
:102430005B0A52052B43C90FC500520D012A28DD46
:102440003A4AA618FE2E1BDC002E3EDD800102005B
:10245000501E82416D0F2A43DB0013435A0704D0FC
:102460000F221A40042A00D004338022D2041A40DA
:102470005AD00136FF2E03D09B015B0AF4B201E073
:10248000FF2400235802E405400AC90720430843FB
:10249000F0BD002C07D01D43F2D08020DB0080046B
:1024A0000343FF26DAE72B4303D00523DB08FF2C89
:1024B00003D05B025B0AE4B2E4E7002B32D0802059
:1024C000C00303435B025B0ADCE73200173214DB14
:1024D00080221E2712041343BF1B1F2F0FDC144A38
:1024E000944664442A00A5402E00A340751EAE41C8
:1024F000FA40334313430026B0E70024D5E7022215
:102500005242961B1A00F240202F09D009488446F7
:102510006444A3402B435D1EAB41002613439DE75B
:102520000023F7E70023ADE73400BFE780FCFFFF9F
:1025300082FCFFFFA2FCFFFF1C2101231B04984229
:1025400001D3000C10391B0A984201D3000A083944
:102550001B09984201D30009043902A2105C4018FB
:102560007047C0460403020201010101000000009F
:1025700000000000F0B51C0085B00023150000220B
:1025800006000F0001F0FEFC2300002803D02D23DD
:10259000013D2370631C00220849039267320292B6
:1025A000019300953B003200086800F00FF9431ECC
:1025B000984140420440200005B0F0BD08000020D2
:1025C00070B515000C00FFF7DBFE2B002200FFF7B3
:1025D000D1FF70BD70B500260C4D0D4C641BA410CE
:1025E000A64209D1002602F09DFD0A4D0A4C641B4B
:1025F000A410A64205D170BDB300EB589847013630
:10260000EEE7B300EB5898470136F2E7305100008F
:10261000305100003051000034510000931E10B5BD
:102620000C00222B04D900231C000B70200010BDCD
:102630000A2A09D1002807DA2D230B700121404214
:10264000611800F00FF8F1E70021F9E710B5FFF786
:10265000E5FF10BD03008218934200D17047197046
:102660000133F9E7F0B517008FB0252206000D0001
:1026700004A8184900F078F904AABB1E00240392AC
:10268000222B05D92C70250028000FB0F0BD019C2D
:10269000631C0193EB1800933000013B3900029357
:1026A000FEF7D8FF039B029A5B5C30001370390081
:1026B000FEF74AFF061EEAD1009B18702B005A1B3A
:1026C0009442E1DD1A78295D19702A550133013CE5
:1026D000F5E7C046F04F0000F0B58BB00E0010A932
:1026E00010C90D7808A9049107A9039109A90291BD
:1026F000611C01910221009100F046FD099F324BBF
:102700009F4205D10100300000F0B2FC0BB0F0BDDB
:102710000378129A411C3370224309D11400731CB0
:1027200008781A00002807D1672D0CD1652514E020
:102730002E22B31C7270F3E7002CF5DD1870013106
:10274000013C0133ECE7472D39D02100302000292E
:1027500031DCE343DB171C40121915707B1E951CFE
:1027600009932C00002B2CDA2D2353702C3BDF1BFC
:102770000997099E632E0CDD6421300001F002FBF5
:10278000030030332B7064235B4258438019099057
:102790006C1C099D0A21280001F0F4FA03000200D4
:1027A0000A20404258430023401930323030227012
:1027B0006070A370AAE7187001390133C7E7452597
:1027C000CBE72B235370D4E70F270000F0B515009B
:1027D0001C008DB014AB1B78060007930022002369
:1027E00028002100139F01F0CDFB002802D0802398
:1027F0001B06E418002200232800210001F0BCFB86
:10280000002806D030233B7000237B7038000DB0C9
:10281000F0BD514A514B2800210001F0BDFB0028BA
:102820000DD0159B2A000293079B39000193129B40
:102830003000013B00932300FFF74EFFE6E71298BC
:1028400000F07EFB02000B002800210001F0B8FB25
:102850000028E6D10022424B2800210001F092FB23
:102860000AAB039309AB0293129B0BAA0193049248
:102870000323002800D1022300932A002300300004
:1028800000F082FC374B099A9A4213D03A00129B0F
:1028900004789B1A1100FB18099D002C15D1012109
:1028A0008C46ED1AEE181100002E3BDC002C0ED0E9
:1028B00009960CE00100380000F0DAFBA6E7013DC4
:1028C0001470013009950132E1E7002DF7DC159C09
:1028D000002C02D10478002C21D0974202D1302262
:1028E000791C3A702E2230250A7001264A1C0021DC
:1028F000099C002C1EDB002900D0099404781100EB
:10290000002C01D0002B1DDC1598002807D01800E2
:10291000302400281BDCDA43D2171340C9180023E7
:102920000B7073E7002BC1DD3021013B1170644651
:102930000132B7E7002BDEDD15700134013B0132B7
:102940003100D6E714700130013B0132D6E7147034
:1029500001380132DDE7C0462D431CEBE2361A3F59
:102960000000F03F0F270000002310B59A4200D16D
:1029700010BDCC5CC4540133F8E770B5466A04005E
:102980000D00002E07D1102001F0E6F960624660CC
:1029900086600660C660666AF368002B13D0636ABF
:1029A000AA00DB689B181868002818D101210E00C6
:1029B000AE40721D9200200000F0DCFA00280CD01E
:1029C000456086600DE021220421200000F0D2FA4B
:1029D000636AF060DB68002BE1D1002070BD026803
:1029E0001A6000230361C360F8E770B5446A06000B
:1029F0000D00002C07D1102001F0AEF97062446088
:102A000084600460C460002D07D0736A6A68DB6864
:102A100092009B181A682A601D6070BDF7B51E00F1
:102A200014239C4607000C0000200D698C4463466B
:102A300019881B6851431B0C534389190E0C9B19B1
:102A400089B21E0C1B045B186146013008C18C461C
:102A50008542ECDC002E1BD0A3689D4212DB63682C
:102A60003800591CFFF789FF2100236901909A1C47
:102A700092000C310C30FFF777FF21003800FFF790
:102A8000B4FF019C2B1D9B00E31801355E6025619E
:102A90002000FEBD0300020C0020824201D11B0475
:102AA00010301A0E01D108301B021A0F01D1043068
:102AB0001B019A0F01D102309B00002B03DB013078
:102AC0005B0000D4202070470722036810B5010086
:102AD0001A400DD001240020234205D102300342C8
:102AE00003D0E34020000B6010BD9B080B60FBE7A8
:102AF0009CB21000002C01D110201B0CDAB2002A6D
:102B000001D108301B0A1A0701D104301B099A07AA
:102B100001D102309B08DA07E8D45B0801D001300C
:102B2000E4E72020E0E710B50C000121FFF725FFC6
:102B300001234461036110BDF0B50B6915001269F2
:102B400089B00C00934201DA2C000D0027692E6930
:102B5000A268BB1961680193934200DD0131FFF760
:102B60000CFF030014330093009ABB1994469B009A
:102B70009C4413000022049063451CD32A001434A3
:102B8000BF00E3191432B60005939319029406931B
:102B9000069B9A4211D3019B002B06DD04235B4266
:102BA0009C4463461B68002B51D0049B019A18007B
:102BB0001A6109B0F0BD04C3DEE71488002C1ED0F2
:102BC0000026009D029F01CF079508CD039383B295
:102BD000634319006B46000C9B896043CB18039933
:102BE0009B19090C4118180C09180E0C9BB209040A
:102BF0000B4307990B60059BBB42E4D82E6013681A
:102C00001B0C03931ED00026009B029C1B6800989F
:102C100007002188039D9BB2694320C82D0C4919E8
:102C20008E1931040B433B6008CC03991B0C4B43BA
:102C30007968360C89B25B1805999B191E0CA14264
:102C4000E6D80360009B043204330093A0E7019BA5
:102C5000013B01939FE700000323F7B513400500F4
:102C60000E001400002B08D02249013B9A00525854
:102C700000233100FFF7D2FE0600A310019336D0E7
:102C80006C6A002C07D1102001F066F8686244607D
:102C900084600460C4606F6ABC68002C07D1164968
:102CA0002800FFF740FF00230400B8600360012202
:102CB000019B13420AD0310022002800FFF73CFF9D
:102CC000070031002800FFF790FE3E00019B5B10DB
:102CD00001930CD02068002807D122002100280091
:102CE000FFF72AFF0023206003600400DFE73000C5
:102CF000FEBDC0460851000071020000F0B50D0095
:102D000017002B69541185B0E31802930133019326
:102D10004968AB680390019A934234DB0398FFF74C
:102D20002CFE00230200060019001432A3422DDB02
:102D3000E343DB171C402B001F21A40014192A6950
:102D4000143392009A180F4024D00131C91B8C46CD
:102D500000211868B84001436046216002CB04346A
:102D6000C1409A42F5D82160002902D0029B02336B
:102D70000193019B0398013B33612900FFF735FE66
:102D8000300005B0F0BD01315B00C4E79800115080
:102D90000133CBE702CB02C49A42FBD8E9E70A69C8
:102DA000036930B59B1A0ED1920014301431841887
:102DB0008918043C043922680D68AA4205D0AA4249
:102DC000924101231343180030BDA042F1D3FAE72A
:102DD000F0B50D0085B00700110028001400FFF7C2
:102DE000DEFF061E08D101003800FFF7C6FD0123F3
:102DF0004661036105B0F0BD01230193002804DBA7
:102E000023002C001D000023019361683800FFF7A8
:102E1000B4FD2F000022019B2669C3601434B30067
:102E2000E31802932B6914379B00FB1803930300EC
:102E30009446143320CC04CF0192AAB294446A463B
:102E4000614692882D0C8A1A0199090C691A151489
:102E500049190D1492B209040A431A60039AAC4648
:102E60000433BA42E6D802991A008C4205D3043AD8
:102E70001368002B0ED00661BCE704CC91B261440C
:102E80000D14120C5219151489B212040A43AC46DF
:102E900004C3E8E7013EEAE7F7B51D000121089FFA
:102EA0001400FFF76AFD2B036D0006001B0B6D0D70
:102EB00024D10193002C27D068460094FFF704FE2C
:102EC000009C00281ED0019B20211A00091A8A406C
:102ED000C340224372610193019CB461631E9C4113
:102EE00001343461002D18D0124BED1835232D1804
:102EF0003D60181A099B18603000FEBD8022520305
:102F00001343D6E77461E7E701A8FFF7DDFD01246D
:102F1000019B346173612030E4E7074BC018074B15
:102F20003860E3189B00F3185869FFF7B3FD64019C
:102F3000201ADFE7CDFBFFFFCEFBFFFFFFFFFF3FC8
:102F400010B50400172805DC074BC4001C192068C5
:102F5000616810BD002005490022054B013CFEF7C9
:102F60004DFF002CF8D1F4E7405000000000F03F86
:102F7000000024404A4370B51100140000F008F826
:102F8000051E03D022000021FFF764FB280070BD5E
:102F9000032370B5CD1C9D43083506000C2D1ED2B1
:102FA0000C25A9421DD8300000F0E0FE254A146827
:102FB0002100002919D1244C2368002B03D13000B3
:102FC00000F044F820602900300000F03FF8431C76
:102FD0002CD10C233000336000F0C9FE03E0002D3B
:102FE000DFDA0C233360002070BD0B685B1B1AD442
:102FF0000B2B03D90B60CC18256003E08C420ED15B
:1030000063681360300000F0B2FE200007220B302E
:10301000231D9043C31AE7D05A42E250E4E74B68BD
:1030200063600C00EEE70C004968C2E70323C41C90
:103030009C43A042E0D0211A300000F007F8431C66
:10304000DAD1C6E7B8000020BC000020002370B52C
:10305000064C050008002360FEF70EF9431C03D15F
:103060002368002B00D02B6070BDC0466802002092
:10307000031C0A7801311A700133002AF9D1704714
:10308000F0B503690C6989B00700059100269C42E0
:103090006DDC0B00013C1433A50003935B19049312
:1030A0000300143302935D19049B28681B68591CA4
:1030B0000193FEF749FA0190B0422DD0039B02988C
:1030C0009C460696624608CA9446019A99B25143B4
:1030D0001B0C534389190A0C9B18079302881E0C7A
:1030E000069B89B2D2180368521A190C6B469B8B47
:1030F000CB1A11145B18191492B21B041A43049BC7
:10310000069104C06345DDD22B68002B04D1029BDD
:10311000043DAB422ED33C6105993800FFF73FFEDA
:10312000002823DB0025019B0298013303990193BA
:1031300008C9028855199AB2AA1A05681B0C2D0CE9
:10314000EB1A15145B191D1492B21B04134308C02B
:10315000049B8B42ECD2029AA300D3181A68002A6F
:1031600004D1029A043B9A4209D33C61019E30008B
:1031700009B0F0BD2B68002BCDD1013CC7E71A6820
:10318000002AF2D1013CECE7F0B516001F00446ABA
:103190009DB00490259D06960797002C08D110201D
:1031A00000F0DAFD049B5862446084600460C460EF
:1031B000049B5B6A196800290BD05A68012393406D
:1031C0004A608B600498FFF710FC0022049B5B6A46
:1031D0001A60079B002B1FDA01232B607B005B0822
:1031E0000793079CB74B220019931A409A4216D1B5
:1031F000B54B249A1360069B002B03D1240301D105
:1032000000F091FDB14B269A0A93B14B002A01D0F0
:1032100000F08FFD00F08FFD00232B60E1E7069E9C
:10322000079F002200233000390000F0A5FE051E94
:103230000ED00123249A1360A64B269A0A93002AE3
:1032400001D100F078FDA44A26990A6000F073FDD0
:103250001AAB01931BAB009332003B000498FFF7BD
:103260001BFE630005905B0D00D17FE03A039B4C91
:10327000120B144321009A4A300018959E18002220
:10328000984B01F0B7FA984A984BFEF7B7FD984A69
:10329000984B00F09FFE040030000D00FFF72EF861
:1032A000954A964BFEF7AAFD02000B00200029006C
:1032B00000F090FE04000D0001F0B2FD002203902A
:1032C00000232000290000F05DFE00280ED00398A6
:1032D000FFF714F80B0002002900200000F04CFE5C
:1032E000030058425841039B1B1A03930123169372
:1032F000039B162B0FD88249DB00C9180868496860
:10330000069A079B00F052FE00284BD0039B013B1E
:103310000393002316931A9B9E1B00230B933300E9
:10332000013B0C9304D501239B1B0B9300230C93AF
:10333000039B002B38DB039A0C9B944663440C934D
:1033400000230F920893229B0125092B00D991E0BD
:10335000052B02DD0025043B2293229B981E0328A7
:1033600000D991E000F004FD828429761A9B1B9A13
:103370009E18644BF218202A0FDD634B0698F31851
:10338000D84040239B1A9C40204301F07DFD01233F
:103390005E4C013E0919189371E7202306989B1A89
:1033A0009840F2E71690B6E70B9B039A9B1A0B9393
:1033B0005342089300230F93C5E701230E93239BE9
:1033C000002B65DD1F000D93049A546A0022626091
:1033D00004321100143199425FD961680498FFF7F3
:1033E000CCFA049B20605B6A1B680A930E2F00D9FD
:1033F00005E1002D00D102E1069B079C1493159472
:10340000039B002B00DC85E01A000F213C4B0A4097
:10341000D2009B185C681B6810931194039B0224D4
:103420001D11EB060AD53A4B0D401A6A5B6A1498D7
:103430001599FEF7AFF9069007910134344E002D2F
:1034400030D1109A119B06980799FEF7A3F90690C0
:1034500007917AE00123239A0E939446039B6344D9
:103460005F1C0D933B1EAFDC0123ADE70023A5E7F6
:103470000023F0E700230E952293013B00220D93D9
:103480001F00133323929FE701230E93023BF5E7BE
:1034900001230D931F001A00F4E761685200013107
:1034A000616096E701231D4208D010981199E41835
:1034B00032687368FEF7A2FC109011916D10083607
:1034C000BDE7C0460000F07F0F2700001D5100003F
:1034D0002051000021510000225100000000F03F67
:1034E00001FCFFFF0000F83F61436F63A787D23FF5
:1034F000B3C8608B288AC63FFB799F501344D33FE3
:10350000405000003204000012040000000010FED1
:1035100018500000039B0224002B16D01498159914
:103520005D420F23CA4A2B40DB00D3181A685B6840
:10353000FEF764FC002306900791C64E2D11002D66
:1035400000D08CE0002B00D081E7169B002B00D12F
:1035500091E0069A079B10921193109811990022FE
:10356000BD4B00F00FFD002800D184E0002F00D1FA
:1035700081E00D9B002B3EDD10981199039B0022EA
:103580005E1EB64BFEF73AFC069007910D9D013486
:103590002000FEF7B3FE069A079BFEF72FFC0022E1
:1035A000AF4B00F017FD12901391129B139CAD4A84
:1035B00010931194139B9C181194002D5ED10698C2
:1035C00007990022A84B01F015F9109A23000690E4
:1035D000079100F0EBFC002800D001E3A348139909
:1035E000844661440B0006980799109A00F0CAFCC3
:1035F000002800D0E8E2149B159C069307941B9BBF
:10360000002B00DA57E1039A0E2A00DD53E1904BBC
:10361000D2009B185C681B6808930994239B002BBD
:1036200000DBCEE0002F00DDCBE000D0CFE2089839
:10363000099900228C4BFEF7E1FB069A079B00F0EC
:10364000BFFC3E000897002800D0A4E20A9B0A9A1B
:103650005D1C31231370039B013303939FE201220E
:10366000154205D0A41832687368FEF7C7FB012322
:103670006D10083663E7039E3D0089E70A9A691ECC
:10368000521917920E9A724BC900002A4AD05B1841
:103690001A685B6800207649FEF77CF8109A119B47
:1036A00001F0A8F80A9B10901191129306980799BF
:1036B00001F0B6FB0400FEF721FE02000B000698A5
:1036C000079901F097F8129B30345D1C1C70109A1A
:1036D000119B0690079100F055FC002865D1069AD1
:1036E000079B00205C4901F085F8109A119B00F0BF
:1036F00049FC002800D0BEE0179B9D4200D17AE72C
:10370000109811990022554BFEF778FB002210907B
:10371000119106980799514BFEF770FB1295069090
:103720000791C3E7591808684968109A119BFEF77A
:1037300065FB109011910A9C179D0698079901F05E
:103740006FFB1290FEF7DAFD02000B000698079956
:1037500001F050F8129B0690079130332370179BAD
:1037600001340022A34224D1414B1098119900F05A
:1037700031FC02000B000698079900F017FC0028A6
:1037800000D078E0109A119B0020394901F032F8FE
:1037900002000B000698079900F0F4FB002800D106
:1037A00029E76B1E1A78302A01D003963FE01D00EE
:1037B000F7E706980799294BFEF720FB069007913B
:1037C000BBE70A9E089A099B06980799FDF7E2FF56
:1037D00001F026FB0400FEF791FD089A099BFEF715
:1037E0000DFB0B0002000698079901F003F8230077
:1037F000303333700A9B751CEB1A9F424CD1020088
:103800000B0000F0E7FB06000F0002000B00089819
:10381000099900F0B7FB00282CD1089809993200CB
:103820003B0000F0A9FB002801D0E30722D4059952
:103830000498FFF7DAF800232B70039B249A0133D6
:103840001360269B002B00D175E21D6073E2C04619
:1038500040500000185000000000F03F00002440DD
:1038600000001C400000C0FC000014400000C07CB0
:103870000000E03F039E6B1E1A78392A06D10A9A8F
:103880009A4207D130231370130001361A7801329F
:103890001A708AE71D00EEE70022CF4BFEF7AEFA62
:1038A00000220023069007912E0000F065FB0028FF
:1038B00000D187E7BBE70E9A002A00D187E0229A61
:1038C000012A6EDC189A002A67D0C44A9B18089D0A
:1038D0000B9C0B9A0121D2180B920C9A0498D318C6
:1038E0000C93FFF720F90600002C0EDD0C9B002B3B
:1038F0000BDD0C9A2300944200DD13000B9AE41AAE
:10390000D21A0B920C9AD31A0C93089B002B1ED040
:103910000E9B002B5FD0002D11DD31002A00049892
:10392000FFF79AF9059A010006000498FFF704F9D9
:10393000059910900498FFF758F8109B0593089B81
:103940005A1B04D005990498FFF786F905900121C8
:103950000498FFF7E8F80F9B0890002B3DDD1A0054
:1039600001000498FFF778F9229B08900025012BAD
:103970003BDC0025069BAB4233D1079B1B03AB42CC
:103980002FD1199B079A13422BD00B9B0135013382
:103990000B930C9B01330C9323E036231A9A9B1A4A
:1039A00095E7089B7D1EAB4206DB5D1B002F0BDA03
:1039B0000B9BDC1B00238CE7089B0895EA1A0F9BE6
:1039C00000259B180F93F1E70B9C3B0081E7089DB6
:1039D0000B9C0E9E88E7089AB4E7229B0025012BDA
:1039E000C7DD0F9B0120002B0BD0089B089A1B6999
:1039F0000F9303339B00D3185868FFF74BF820232D
:103A0000181A0C9BC0181F23184000D1ABE00133DB
:103A10001B1A042B00DC9BE01C23181A0B9B241898
:103A20001B180B930C9B1B180C930B9B002B05DD99
:103A30001A0005990498FFF761F905900C9B002B7B
:103A400005DD1A0008990498FFF758F90890169BAD
:103A5000002B00D189E008990598FFF7A0F900280C
:103A600000DB82E0039B0A22013B039305990023BC
:103A70000498FEF7D3FF0E9B0590002B00D15DE16B
:103A8000002331000A220498FEF7C8FF0D9B0600B0
:103A9000002B02DC229B022B6DDC002C05DD3100AB
:103AA00022000498FFF72AF906003000002D11D0FB
:103AB00071680498FEF761FF3100040033690C312E
:103AC0009A1C92000C30FEF74FFF0122210004984F
:103AD000FFF714F90D9F0A9B013F0B93DB19370089
:103AE00006000F9308990598FFF7CAFA39000D9060
:103AF00004000598FFF753F932000E9008990498D6
:103B0000FFF766F901230C93C36830340500002BDE
:103B100004D101000598FFF742F90C9029000498A0
:103B2000FEF763FF0C9B229A134300D089E0069AAC
:103B30000133134200D084E0392C00D1A3E00E9B66
:103B4000002B01DD0D9C31340B9B5D1C1C7027E0AC
:103B5000042B00D169E70B9A1C33D2180B920C9AF4
:103B6000E418D31860E70300F5E7002F3CDC229B44
:103B7000022B39DD0D970D9B002B0CD108990522E6
:103B80000498FEF74BFF089001000598FFF707F92E
:103B9000002800DD5AE5239B0A9DDB4303930027A1
:103BA00008990498FEF721FF002E00D13FE6002F70
:103BB00005D0B74203D039000498FEF716FF310054
:103BC0000498FEF712FF32E608952E00E3E7002383
:103BD00008931E00DFE7C0460000244033040000C5
:103BE000039608952E0031E50E9B0D97002B00D013
:103BF00053E70A9D08990598FFF742FA0A9B30306F
:103C00000D9A287001350400EB1A9A4278DC151ED3
:103C100000DC012500270A9B5D1905990122049803
:103C2000FFF76CF808990590FFF7B9F800282FDC2A
:103C300001D1E3072CD46B1E1A78302AB0D11D00B5
:103C4000F9E70E9B002B07DB1D00229B1D4326D1AD
:103C50000123069A134222D10C9B002B00DC73E750
:103C6000059901220498FFF749F808990590FFF794
:103C700096F8002804DC00D066E7E30700D463E789
:103C8000392C00D05EE70B9B0B9A5D1C3923137017
:103C90006B1E1A78392A3BD001321A7080E70B9BD1
:103CA00001330D930C9B002B05DD392CEBD00D9DC2
:103CB00001340B9B4AE70B9B0F9A0D9D1C7093429E
:103CC000ABD000230A2205990498FEF7A7FE002333
:103CD00005900A2239000498B74206D1FEF79EFEED
:103CE000070006000D9B0B93FCE6FEF797FE3100E4
:103CF000070000230A220498FEF790FE0600F1E771
:103D000000230A2205990498FEF788FE059071E7C2
:103D10000A9A9A4205D1039B01330393312313700E
:103D20003EE71D00B4E70A4B269A0A93094B002A86
:103D300001D0269A13600A981DB0F0BD0D9B002B90
:103D400000DD56E7229B022B00DC52E713E7C0465A
:103D5000145100001C51000010B5034B01001868FD
:103D6000FFF716F910BDC0460800002070477047E5
:103D700002B4714649084900095C49008E4402BCFE
:103D80007047C04603460B437FD4002243088B4252
:103D900074D303098B425FD3030A8B4244D3030BD2
:103DA0008B4228D3030C8B420DD3FF22090212BA97
:103DB000030C8B4202D31212090265D0030B8B4213
:103DC00019D300E0090AC30B8B4201D3CB03C01AFD
:103DD0005241830B8B4201D38B03C01A5241430BD8
:103DE0008B4201D34B03C01A5241030B8B4201D3C8
:103DF0000B03C01A5241C30A8B4201D3CB02C01A33
:103E00005241830A8B4201D38B02C01A5241430AAA
:103E10008B4201D34B02C01A5241030A8B4201D399
:103E20000B02C01A5241CDD2C3098B4201D3CB0140
:103E3000C01A524183098B4201D38B01C01A5241EF
:103E400043098B4201D34B01C01A524103098B42F3
:103E500001D30B01C01A5241C3088B4201D3CB00DE
:103E6000C01A524183088B4201D38B00C01A5241C1
:103E700043088B4201D34B00C01A5241411A00D271
:103E800001465241104670475DE0CA0F00D04942DA
:103E9000031000D34042534000229C4603098B424A
:103EA0002DD3030A8B4212D3FC22890112BA030AD2
:103EB0008B420CD3890192118B4208D38901921154
:103EC0008B4204D389013AD0921100E08909C309D9
:103ED0008B4201D3CB01C01A524183098B4201D3DB
:103EE0008B01C01A524143098B4201D34B01C01AC6
:103EF000524103098B4201D30B01C01A5241C3083E
:103F00008B4201D3CB00C01A524183088B4201D3AC
:103F10008B00C01A5241D9D243088B4201D34B00C7
:103F2000C01A5241411A00D20146634652415B1009
:103F3000104601D34042002B00D5494270476346EA
:103F40005B1000D3404201B50020FDF787FB02BDA6
:103F50000029F8D016E770478446101C62468C464C
:103F6000191C634600E0C0461FB500F0E1FB0028C5
:103F700001D40021C8421FBD10B500F03BFB4042F8
:103F8000013010BD10B500F0D3FB002801DB00208C
:103F900010BD012010BDC04610B500F0C9FB0028BF
:103FA00001DD002010BD012010BDC04610B500F09D
:103FB0005BFB002801DC002010BD012010BDC046C5
:103FC00010B500F051FB002801DA002010BD0120DF
:103FD00010BDC046F8B54546DE4657464E460C0372
:103FE000E0B54E00C90F88460D00610A440F0C432E
:103FF000C70019035800DB0F9B464B0A510F0B43B8
:10400000760D400D1900D200D84500D1AEE0351A2A
:10401000002D00DCF6E000280FD1134300D1DBE0D7
:104020006B1E002B00D037E1BA1A9742BF41641AC9
:104030007F42E41B0126170024E0C64B9E424DD070
:1040400080231B041943382D00DD07E11F2D00DDFF
:1040500038E12020431B9A460B0050468340994686
:1040600013004846EB401843030050468240501E60
:104070008241E9401A43BA1A611A9742A4411700D3
:1040800064420C1B230262D56402650A002D00D134
:10409000DFE02800FEF750FA0300083B1F2B00DD8D
:1040A000D2E020223C00D21A9D40D4409F402543BC
:1040B0009E4200DDC4E09E1B731C1F2B00DDF1E05F
:1040C000202238002900D21AD840914097402C0075
:1040D0000143781E8741DC4000260F437B0709D04F
:1040E0000F233B40042B05D03B1DBB42BF417F4209
:1040F000E4191F0023022CD5964B01369E4200D1B5
:104100009AE04546944BFF081C4060077605640220
:104110000743240B760D00212403230B0C0D8F4A3B
:1041200024051C431440330523435B00ED075B0863
:104130002B43380019003CBC90469946A246AB463A
:10414000F8BD6446044300D111E2040067467B07D2
:10415000C6D145466007FF080743E4087D4B9E42F1
:1041600030D024037605240B760DD4E7331A9A4613
:10417000002B78DD002831D076488642AED08020F2
:10418000000401435346382B00DCE9E00A43511E8A
:104190008A410021D219BA42BF4109197C42170055
:1041A0000C192302D3D56B4B01369E4200D13AE164
:1041B0000120694B1C407B0807401F43E007074371
:1041C00064088BE723003B4300D1CBE1802212033C
:1041D00014432403240B9EE72E007FE708001043BE
:1041E00000D1B4E0581E002800D0DEE0BA18BA4270
:1041F0009B4164185B42E418170001262302A6D5F0
:104200000226D5E7002D6ED1701C4005400D012817
:1042100000DCF9E0B81A844687428041E51A404242
:104220002D1A280200D489E0D71BBA4292411C1BE8
:104230005242A51AD84629E74546002400276AE7D6
:10424000454CF61A2C4049E73D00283885400027A8
:104250002EE73800FEF770F920301DE70A43511EA3
:104260008A41002107E7002B00D0F3E0701C4305D2
:104270005B0D012B00DCADE0364B984200D1D1E064
:10428000BA18BA42BF4164187F42E419E7075208DE
:1042900017436408060021E72E48854200D193E0C9
:1042A0001D00D0E629001F3EF140202B00D18DE0FB
:1042B0004022D31A9D402F437D1EAF4100240F435F
:1042C000002644E72B000800203BD8400300202DA7
:1042D00000D17DE04020451BA9400A43511E8A4180
:1042E00000211A43C7E6002E50D01A4EB04257D0D4
:1042F00080266B429946360434434B46382B00DD0A
:10430000D6E01F2B00DD35E12026F51A2600AE4051
:10431000B2463E00DE40AC46350056462E4365466A
:10432000AF407D1EAF41DC403743D71BBA429241BC
:104330000C1B5242A41A0600D846A3E66446674600
:104340002C4300D0A2E600250026002706E71E0029
:10435000C4E6C046FF070000FFFF7FFFFFFF0F809E
:104360001F2B63DC2020C31A080098409C4683461C
:1043700053461000D84003005846184363469A40FD
:10438000531E9A4153460243D94003E726003E4359
:1043900006D0EB439946002BC7D0944EB042ACD127
:1043A0000C0017000600D84698E6904B9A450BD0B3
:1043B0008246E7E6002800D09EE01800104300D1B6
:1043C000E9E01C001700D846884E87E6002572E712
:1043D000002182E723003B43002E00D0ABE0002BFE
:1043E00000D1E7E00B00134300D177E6BA18BA42D8
:1043F000BF4164187F42E419230200D4F2E07C4BF1
:1044000017001C40060069E620003843002ED1D179
:1044100000285BD11C00144300D1A8E01C00170049
:10442000D8465BE606000024002797E650460B00BE
:104430002038C34099465346202B00D195E04023B5
:1044400050461B1A99400A43511E8A414B4600218F
:104450001A439FE6002E30D126003E4367D0DB434F
:104460009A46002B1CD0614EB04260D05346382B88
:1044700000DD96E01F2B00DD9FE02026F31A2600CA
:104480009E409C46B34653463E00DE4033005E46A7
:104490001E4363469F407B1E9F415346DC4037438B
:1044A000BF189742924164185242A418060078E659
:1044B00027437C1EA741002437E74C4EB04236D03C
:1044C00080265B4236049A463443CFE718001043F7
:1044D00000D103E6B81A84466745AD41E01A6D4243
:1044E000401B050200D42CE6D71BBA4292411C1B8C
:1044F0005242A41AD846F1E51800104300D163E7F0
:10450000F808670707438020E4080003044208D046
:10451000DD08054205D1D208590711430F002C00D0
:10452000D8467B0FE4001C43FF00304ED6E50C005C
:1045300017000600D2E5002B38D00B00134300D142
:1045400042E7F808670707438020E40800030442B5
:10455000E7D0CB080342E4D1D208490711430F004A
:104560001C00DEE700270024D5E500216BE70025CD
:104570000027F3E54E462500203EF5404B462E0031
:10458000202B2DD04025ED1AAC4027437C1EA7419F
:1045900000243743C9E6802400252403134E002756
:1045A000DCE527437C1EA741002479E70C001700B7
:1045B0000E4E93E50C00170090E556462300203E72
:1045C000F34099465346202B0ED0402356469B1B62
:1045D0009C4027437C1EA7414B4600241F435FE7B6
:1045E0000024D2E71700B2E50024F2E7FF0700003D
:1045F000FFFF7FFFF0B54F464646D6465C00C0B58C
:104600001F03DB0F9A46174B0E034D00844680466E
:10461000360B6D0DC90F91463F0B640D01209D4275
:1046200008D09C4201D0A5420BD01CBC90469946B4
:10463000A246F0BD63463343F7D1AC42F5D13A43CD
:10464000F3D10120BE42F0D1C845EED1514507D08B
:10465000002DEAD163461E433000461EB041E4E718
:104660000020E2E7FF070000F0B54546DE4657466A
:104670004E46E0B51F033D0B2C4F0E034C00AB46DE
:104680005D008446360B640DC90F90466D0DDB0F3F
:10469000BC422AD0254FBD422DD0002C0FD1304333
:1046A0000700814678427841C0B2002D17D15F469D
:1046B0003A4314D14B460020002B0AD006E0002DCF
:1046C00002D15846024301D0994218D048420121F4
:1046D00008433CBC90469946A246AB46F0BD002834
:1046E000F2D00120013B1843F3E737000743D1D054
:1046F00002204042EDE75F461743CED0F8E7AC42D8
:10470000E4DC03DA481E01210843E2E75E45DDD818
:1047100006D000205E45DCD20123481E1843D8E7AE
:10472000C445D3D80020C445F6D3D2E7FF07000024
:10473000F0B54E464546DE4657465C00E0B51F03E1
:10474000DB0F99462A4B0E034D00C90F8446360BEA
:104750006D0D8B4690463F0B640D9D4220D0244B3F
:104760009C4222D0002D12D1304343424341DBB260
:10477000002C1FD0002B0CD04B460120013B0343E3
:1047800018003CBC90469946A246AB46F0BD002CB2
:1047900016D0CB4517D05B46594201230B43EFE7B8
:1047A000310002230143EBD1D9E739000223114341
:1047B000E6D1D7E73A43DDD100230028E0D0EAE78D
:1047C0003A43E6D1E7E7A542E5DC05DBBE42E2D8A5
:1047D00007D00023BE42D3D25946012301390B43EF
:1047E000CEE7C445D7D80023C445F5D3C8E7C046B3
:1047F000FF070000F0B54646D6464F460C03C0B54D
:10480000CD0F4E00610A440F0C43C1005800400D0B
:1048100084468A460F001903500F490A0143C648CF
:10482000760DA846DB0FD200844500D1D8E00120E8
:104830004340AB4200D1A6E06046351A002D00DCB3
:1048400005E1002810D10B00134300D1D7E06B1E07
:10485000002B00D04BE153469F1ABA458041641AA1
:104860004042241A01261EE0B34B9E4248D08023CA
:104870001B041943382D00DD19E11F2D00DD4CE12B
:1048800020230F005B1B10009A409F40E840531EFE
:104890009A41E940074317435346DF1B611ABA4563
:1048A000A44164420C1B230200D4C5E06402650AE3
:1048B000002D00D1F6E02800FDF73EFE0300083B86
:1048C0001F2B00DDE9E020223C00D21A9D40D4409D
:1048D0009F4025439E4200DDDBE09E1B731C1F2B87
:1048E00000DD0AE120223800D21A290097402C006E
:1048F0009140D8407A1E9741DC40002601430F4387
:104900007B0709D00F233B40042B05D03B1DBB4246
:10491000BF417F42E4191F00230225D5864B013693
:104920009E4200D1AFE0854B01251C404346620703
:10493000FF08640276051743240B760D1D40002105
:104940002403230B0C0D7E4A24051C43144033051D
:1049500023435B00ED075B082B43380019001CBCA8
:1049600090469946A246F0BD012543466207FF08DE
:104970001743E4081D40704B9E4236D02403760551
:10498000240B760DDBE76346F31A002B00DC94E082
:104990006046002835D068488642B1D080273F0461
:1049A0003943382B00DCFDE00A43170000217A1E52
:1049B0009741574457458041091944420C19230235
:1049C0003AD55D4B01369E4200D14BE101225B4B53
:1049D0001C407B0817401F43E207174364088FE71A
:1049E0000800104300D024E721E723003B4300D117
:1049F000B9E18022120314432403240B9FE72E0005
:104A00007EE70800104300D1CAE0581E8446002803
:104A100000D0E7E0524452458041641840422418D7
:104A200017000126230207D50226CFE764462C4350
:104A300000D1B3E12C0067467B0700D062E7630733
:104A4000FF081F4301254346E4081D4093E7002D5E
:104A500078D1751C6D056D0D012D00DCF2E050461E
:104A6000801A8245BF41651A7F42ED1B84462802A9
:104A700000D48CE05046171ABA4292410C1B5542A2
:104A8000651B984614E70125434600241D40002776
:104A900055E72A4CF61A2C4032E73D00283885406D
:104AA000002717E73800FDF747FD203006E70A43E7
:104AB000170000217A1E9741EEE6002B00D0E5E0BA
:104AC000731C9C465B055B0D012B00DC9FE01A4BC1
:104AD0009C4500D1C5E05244524580416418404293
:104AE0002418E707520817436408664608E7124887
:104AF000854200D185E01D00BCE629001F3EF14043
:104B0000202B00D17FE04022D31A9D402F437D1EF1
:104B1000AF4100240F4300268EE72B000F00203BFF
:104B2000DF40202D71D040235D1BA9400A43511E58
:104B30008A4100211743AFE6FF070000FFFF7FFF18
:104B4000FFFF0F80002E3ED0B34EB44545D08026E7
:104B500036046D423443382D00DDA8E01F2D00DD02
:104B60001FE1202627005046761BB740E840074348
:104B70005046B040461EB041EC403843171ABA4286
:104B800092410C1B5242A41A664698468BE6644634
:104B900067462C4300D08BE6002500260027EAE676
:104BA0001E00ADE61F2B60DC2027F81A0F0084469C
:104BB00087401000D840074360468240501E824123
:104BC000D9401743F5E626005046064305D0ED438D
:104BD000002DD3D0904EB445BDD10C0017006646D1
:104BE00098468DE68C4883420BD06346D9E6002D6B
:104BF00000D096E00800104300D1E2E00C0017005E
:104C00009846854E7CE6002580E700218EE723004C
:104C100050460343002E00D0A8E0002B00D1DEE078
:104C20000B00134300D16BE6524452458041641897
:104C3000404224181700230200D4FDE6774B664655
:104C40001C405DE6250050460543002ECFD1002DC7
:104C50004FD10C00144300D1A0E00C00170098467F
:104C60004EE666460024002785E61F000800203F28
:104C7000F8400700202B00D18EE04020C31A994055
:104C80000A43511E8A410021174392E6002E14D197
:104C900026005046064362D0DB43002B5CD18718C8
:104CA0009742924164185242A418664687E65046DD
:104CB0002043441EA041002460E7574EB4454ED027
:104CC000802636045B423443382B00DD7FE01F2B07
:104CD00000DD8BE0202627005046F61AB740D8406A
:104CE00007435046B040461EB0410743DC40BF1862
:104CF000D6E70D00154300D102E65046801A8245E2
:104D0000BF41651A7F42ED1B8446280200D48DE620
:104D10005046171ABA4292410C1B5242A41A9846A6
:104D2000EEE50D00154300D16BE750466707C0085C
:104D300007438020E4080003044207D0CD08054261
:104D400004D12C009846D70849070F437B0FE40095
:104D50001C43FF00304ED3E52F4EB445B4D10C00B8
:104D600017006646CCE500270024E8E5002B39D083
:104D70000B00134300D144E7C008670707438020B6
:104D8000E40800030442E1D0CB080342DED1D70897
:104D900049070F431C00D9E7002171E700250027D0
:104DA000E9E52E002700203EF740202D2FD0402699
:104DB000751BAC4050462043441EA041002438439C
:104DC000DCE6802400252403134E0027D3E550465B
:104DD00020430700781E87410024BF1860E70C00BD
:104DE00017008DE50C0017000B4E89E51E0027000B
:104DF000203EF740202B0CD04026F31A9C40504612
:104E00002043441EA04107430024BF1848E7002464
:104E1000D0E70024F3E7C046FF070000FFFF7FFF55
:104E200030B5134D0A034B00120B5B0DC90F002464
:104E3000AB4210DD0F4CA3420FDC80240E4D640307
:104E40002243ED1A1F2D0BDD0C48C31ADA405442E1
:104E5000002900D11400200030BD094BCC18FAE71E
:104E6000084CE840A44663449A400243EFE7C0463A
:104E7000FE0300001D0400003304000013040000C2
:104E8000FFFFFF7FEDFBFFFF10B5041E28D0FDF7ED
:104E900053FB154B154A1B1AD21A1F2A15DD144A4B
:104EA000D21A9440002224035B05240B5B0D0021E1
:104EB000100024030A0D240B120522430D4C1B0580
:104EC000224013435B00590810BD210091400A00A5
:104ED0000B21081AC4405B052403240B5B0DE6E795
:104EE000002300240022E2E71E0400003304000037
:104EF00013040000FFFF0F8000080042000C004276
:104F0000001000420014004200180042001C004241
:104F1000020C0000FE0B0000FE0B0000640C000001
:104F2000640C0000160C0000080C00001C0C0000B3
:104F3000520C0000EC0C0000CC0C0000CC0C00006B
:104F4000580D0000DE0C0000FA0C0000D00C000030
:104F5000080D0000480D0000202070756C7365205E
:104F60000900000020204F7A2F6D696E200D0A0085
:104F70008C1900006E190000281900004618000066
:104F800028190000601900002819000046180000C8
:104F90006E1900006E19000060190000461800002C
:104FA0003E1800003E1800003E180000A41B000040
:104FB000EC1F0000AC1E0000AC1E0000A81E00008C
:104FC000C41F0000C41F0000B61F0000A81E000080
:104FD000C41F0000B61F0000C41F0000A81E000070
:104FE000CC1F0000CC1F0000CC1F0000D02100000F
:104FF000303132333435363738396162636465664F
:105000006768696A6B6C6D6E6F70717273747576B8
:105010007778797A000000000080E03779C3414357
:10502000176E05B5B5B89346F5F93FE9034F384D0E
:10503000321D30F94877825A3CBF737FDD4F1575BA
:10504000000000000000F03F0000000000002440CD
:1050500000000000000059400000000000408F40A8
:10506000000000000088C34000000000006AF84013
:105070000000000080842E4100000000D012634137
:105080000000000084D797410000000065CDCD41AD
:10509000000000205FA00242000000E8764837428E
:1050A000000000A2941A6D42000040E59C30A2422C
:1050B0000000901EC4BCD64200003426F56B0C43A1
:1050C0000080E03779C3414300A0D8855734764348
:1050D00000C84E676DC1AB43003D9160E458E143A9
:1050E000408CB5781DAF154450EFE2D6E41A4B441E
:1050F00092D54D06CFF08044F64AE1C7022DB54463
:10510000B49DD9794378EA440500000019000000F5
:105110007D000000496E66696E697479004E614ECB
:1051200000300000F8B5C046F8BC08BC9E46704789
:10513000DD000000F8B5C046F8BC08BC9E467047CC
:04514000B5000000B6
:10514400010000000000C4420C0000200000000028
:10515400000000000000000000000000000000004B
:10516400000000000000000000000000000000003B
:10517400000000000000000000000000000000002B
:10518400000000000000000000000000000000001B
:10519400000000000000000000000000000000000B
:0C51A400000000000000000000000000FF
:040000030000119553
:00000001FF
