:10000000482100209511000091110000911100007D
:1000100000000000000000000000000000000000E0
:10002000000000000000000000000000911100002E
:10003000000000000000000091110000911100007C
:100040009111000091110000911100009111000028
:100050006101000091110000911100009111000058
:100060009111000091110000911100009111000008
:1000700091110000911100009111000091110000F8
:1000800091110000911100009D060000AD060000D6
:10009000BD060000CD060000DD0600009111000045
:1000A00091110000911100009111000091110000C8
:1000B0000000000010B5064C2378002B07D1054B3B
:1000C000002B02D0044800E000BF0123237010BDC4
:1000D0000400002000000000CC170000084B10B501
:1000E000002B03D00749084800E000BF0748036819
:1000F000002B00D110BD064B002BFBD09847F9E731
:100100000000000008000020CC170000CC17000001
:10011000000000001723002A01D0180070478B0050
:10012000064A9B58002B03D0834205D01D23F4E7D9
:10013000890088500023F0E70023EEE74800002004
:100140001723002901D01800704700221F2800D86B
:10015000024A01238340D3600023F4E700180040E3
:1001600070B50022104B1A70002310491F25104E45
:100170000D4C0AE00D4908E023780133DBB223700F
:100180000F2B10D800211F2BF4D928001840012272
:10019000824008691042EFD00A619B009B59002BF6
:1001A000EAD09847E8E770BD4500002000180040FD
:1001B00048000020044A137802210B43137053783F
:1001C0005BB2002BFBDB70470018004000B583B02A
:1001D000124A936940210B43936101A900230B70DC
:1001E00005200F4B984705200E4B98470E4A137871
:1001F00001210B43137053785BB2002BFBDB0B4BDD
:1002000019004031002204C39942FCD11022084B4E
:100210001A60084B984703B000BDC0460004004078
:1002200039100000AD0F0000001800404800002009
:1002300000E100E0B50100000023036043600122FB
:100240000272427283720233C3727047F0B583B098
:1002500005000C0001A900234B70CB7023790B70B3
:10026000237A8B702078154B984700201F2D00D8DB
:10027000134807222A409200E77AA37A002B01D084
:1002800008231F43EB089B00C31899690F2696406B
:10029000B14397403A000A439A61637A002B06D132
:1002A00043690122AA409343436103B0F0BD426910
:1002B0000123AB4013434361F7E7C046311100000F
:1002C00000180040F0B5DE4657464E464546E0B5BC
:1002D00087B08046049116001F00002200230021F1
:1002E0008B463F2401202100009601975C46039431
:1002F0004446059413E02024641A0500E540A8460E
:1003000014E0009C019D121BAB415C464D462C4302
:10031000A346039C45462C430394013925D320244E
:1003200064420C19E7D40500A540A84604008C409F
:10033000A14692185B4114001D00059E4F463E40A9
:10034000B446049E47463E40B246664657463E4344
:1003500003D00600264332002B00009C019D9D42E5
:10036000DBD8CED19442D8D8CBE7039B58461900AE
:1003700007B03CBC90469946A246AB46F0BD10B5CE
:10038000490840230024814202D2180010BD1C00FD
:10039000091A631C9BB28842F9D94023FF2CF4D878
:1003A00014800023F1E70000F0B583B00F001600C1
:1003B00008AA117804004C434022BC4202D9100024
:1003C00003B0F0BD002B14D1020008000021194C2D
:1003D000A04701003A0000230020174CA04700224C
:1003E0000123121A8B41120C1B041A433280002283
:1003F000E5E70022012BF9D10A00002300210D4C72
:10040000A04702000B0000920193380000210A4C23
:10041000A047050080239B0140229842CFD8790F46
:10042000F800009A019BA047EA00821AD2B2520358
:100430002A43DBE7BD150000C502000010B582B0FD
:1004400004000E4B1B78002B07D0002905D10B4B65
:100450005B78834210D01D200CE001A90C701320A2
:10046000074B98471320074B9847044B5C700122B9
:100470001A70002002B010BD0020FBE72000002011
:1004800039100000AD0F0000404B984231D00AD91E
:100490003F4B98424DD03F4B98425AD03E4B9842EA
:1004A00037D0002070473D4B98420CD03C4B9842CF
:1004B000F7D1012917D000295DD0022915D00329D1
:1004C00015D00020EEE7012907D0002951D00229DC
:1004D00005D0032905D00020E4E73248E2E732489E
:1004E000E0E73248DEE73248DCE73248DAE7324814
:1004F000D8E7012907D000293FD0022905D00329D8
:1005000005D00020CEE72D48CCE72D48CAE72D487E
:10051000C8E7012907D0002931D0022905D00329D5
:1005200005D00020BEE72848BCE72848BAE728489D
:10053000B8E7012907D0002923D0022905D00329D3
:1005400005D00020AEE72348ACE72348AAE72348BC
:10055000A8E7012907D0002915D0022905D00329D1
:1005600005D000209EE71E489CE71E489AE71E48DB
:1005700098E71E4896E7032094E71D4892E71D4838
:1005800090E71D488EE71D488CE7C04600100042EA
:1005900000180042001C0042001400420008004203
:1005A000000C0042030005000300060003000700E2
:1005B0000300010003001E0003001F0003000900E8
:1005C00003000A0003000B000300110003001200E7
:1005D0000300130003000D0003000E0003000F00D2
:1005E00003001700030018000300190003000400B3
:1005F000030008000300100003000C0003001600B5
:1006000030B587B00B4B6A4632CB32C232CB32C2E6
:10061000009B83420BD001239A00694652588242C4
:1006200006D00133062BF7D1002007B030BD0023E0
:10063000D8B2FAE71817000070B58000164BC458FE
:1006400023689D7B227E637E13401D40EB0706D40A
:10065000AB070BD4EB0610D4AB0615D470BD20004D
:10066000A3689847012322689373F1E72000E368A9
:100670009847022322689373ECE720002369984788
:10068000102322689373E7E7200063699847236883
:1006900020229A73E2E7C0468800002010B50020AF
:1006A000014B984710BDC0463906000010B5012027
:1006B000014B984710BDC0463906000010B5022016
:1006C000014B984710BDC0463906000010B5032005
:1006D000014B984710BDC0463906000010B50420F4
:1006E000014B984710BDC04639060000F0B5DE4604
:1006F00057464E464546E0B591B005000C00160041
:1007000029600800AB4B9847020023680520DB07EF
:1007100006D511B03CBC90469946A246AB46F0BD0A
:10072000236817309B07F4D4A349086A971C012358
:10073000BB4003430B620FA92D27F35D0B701432EE
:10074000D3B2029318009D4B984702989C4B984750
:10075000F05D00219B4B9847F37A6B712423F35C87
:10076000AB712523F35CEB71F37E2B72337F6B72DD
:100770002B68984618008F4B9847143000220E23A0
:1007800006A98C4663441A80328A02928023DB01D8
:100790009A4200D19BE00FD9C023DB01029A9A4212
:1007A00000D18FE080231B029A4200D0FDE003239A
:1007B00006930023079308E080239B019A4200D010
:1007C000F3E0102306930F3B079333689B46F368CF
:1007D000059373690493337E03932623F35C9A464F
:1007E00073689946002B00D19DE080235B059945F5
:1007F00000D181E0737E002B02D0B37E424693731A
:100800000E2306AA944663441B88424693815B46A6
:10081000059A1343049A13434A461343029F1F4306
:10082000039B1B021F4353465B071F432723F35CB5
:10083000002B01D104331F43737E9B02327F52028F
:100840001343727F120213432422B25C52041343F7
:100850002522B25C12041343B17AF27A1143194390
:100860003389FF2B00D182E08022520417431943C1
:100870002C23F35C002B03D1534B9B789B0701D5B2
:1008800080231F432A68D369002BFCD1434659605B
:100890002A68D369002BFCD143461F600EAB80222F
:1008A0001A7000225A70DA709A70336B0A93736B65
:1008B0000B93B36B0C93F36B02930D9300270AAD6C
:1008C000424E63E008230693073B07937DE73368B6
:1008D0009B46F368059373690493337E0393262341
:1008E000F35C9A4673689946002B18D080235B0509
:1008F000994501D0002025E02723F35C002B00D090
:1009000078E7336A1F00C0B2314B984701000E22CE
:1009100006AB9C46624438002E4B984712E00823F1
:100920000693002307932723F35C002B0ED0069B2E
:100930000093079B0E2206A98C466244B16A306A76
:10094000254FB847002800D0E3E653E7336A1F007D
:10095000C0B21F4B98470100069B0093079B0E22D5
:1009600006A88446624438001B4FB847EAE7F37E86
:10097000002B00D17CE78023DB041F4378E72000B5
:10098000164B984707E00137042F0CD0F9B2BB0093
:1009900058590028F3D0431CF5D00EA90870000C5C
:1009A000C0B2B047EFE70020B3E610230693002360
:1009B00007930AE701060000000400403910000018
:1009C000AD0F00003D040000002000413111000087
:1009D000551000007F030000A903000089040000F7
:1009E000C2791C23002A01D1180070470268107ECA
:1009F000173BC007F8D511850221137E0B42FCD0AE
:100A00000023F1E782791C23002A01D118007047E6
:100A10000268107E173B4007F8D5538BDBB298066F
:100A20001DD0980703D5022353831833EEE75807E8
:100A300003D5042353831A33E8E7D80703D50123EA
:100A400053831233E2E7D80603D51023538332339E
:100A5000DCE79B0603D5202353832133D6E7138D90
:100A60000B800023D2E70000F0B5CE46474680B5A4
:100A700083B0050001911720002A04D103B00CBCFB
:100A800090469946F0BDEB790530002BF6D02C68E6
:100A9000013A93B2994600260127204B984611E06F
:100AA000731C9BB2019A915D6A79012A17D089B2B1
:100AB0001E0028001A4B98474B46013B9BB29946B3
:100AC000434513D0237E3B42EAD1144B227E3A4267
:100AD000E6D1012B19D0013B002BF7D1E0E702361C
:100AE000B6B2019AD35C1B021943E2E7237E9B074F
:100AF0000DD40A4B0221227E0A420AD1012B0AD0D0
:100B0000013B002BF7D10020B8E71220B6E7002008
:100B1000B4E70020B2E71220B0E7C046FFFF0000B4
:100B2000E10900000C4B1B68002B06D1EFF310838A
:100B3000002B07D00022094B1A70074A13680133B3
:100B40001360704772B6BFF35F8F0022044B1A70B8
:100B50000132024B1A70F0E7240000202800002028
:100B600000000020084B1A68013A1A601B68002B2D
:100B700009D1064B1B78002B05D00122044B1A70BB
:100B8000BFF35F8F62B6704724000020280000206A
:100B900000000020F0B583B001AC0125657000278E
:100BA000A770257021003E20064EB0478022D20556
:100BB000054B9A612770657021000F20B04703B084
:100BC000F0BDC046CD0B00008044004100B583B0AD
:100BD00001AB80221A700A785A704A789A708A7823
:100BE000DA701900014B984703B000BD31110000C5
:100BF00010B5082803D880001C4B1B589F460020C6
:100C000032E01B4B18692FE01A4B1B6A9B059B0FA8
:100C10001948D84028E0164B586925E0144B1B684A
:100C200000209B0720D513491022CB681A42FCD024
:100C30000F4B1A6824231340042B01D00F4813E0F4
:100C400000200F4B98470A4B9B681B041B0C584312
:100C50000AE05023074AD35C00205B0704D5044B0D
:100C6000D86801E08020000210BDC04630170000A7
:100C70002C0000200008004000127A00006CDC020A
:100C80005510000070B50C490B6A047885784078DF
:100C90000122104080014026B34303432A40D20181
:100CA000802083431343032222401202034803405F
:100CB00013430B6270BDC04600080040FFFCFFFFFD
:100CC000082803D88000254B1B589F46172044E076
:100CD000234A136A02210B43136200203DE0204A9D
:100CE000936902210B439361002036E01C4A138A6A
:100CF00002210B43138200202FE0194A938A02211C
:100D00000B439382002028E016490B68022213430C
:100D10000B60134B9A8419000E32CB681A42FCD038
:100D2000104A91680E4BD96252689A6200229A84E6
:100D300019001032CB681A42FCD00A4B1B689BB2D8
:100D4000074A9384002008E0054944228B5C022076
:100D500003438B54002000E000207047541700002C
:100D6000000800402C00002030B585B0C222D2001F
:100D70001A4B9A601A4A53681E218B435360012311
:100D80006A4613700024174DE0B26946A847013443
:100D9000252CF9D103A80024447001258570047026
:100DA000114B98470620114B9847114B9847114B10
:100DB0001C725C729C72DC7201956B465C7006233F
:100DC0006A46137014725472694600200A4B9847A1
:100DD00000200A4B984705B030BDC04600080040CF
:100DE0000040004139100000850C0000C10C0000DB
:100DF000010E000000040040250E0000DD0E000082
:100E0000064A936908210B4393610122044B1A702F
:100E100019000B781342FCD17047C0460004004013
:100E2000000C004070B5060004000D782D0205434B
:100E30004B78002B02D08023DB021D434B7A002B22
:100E400002D080231B031D434868012810D9431E8C
:100E5000184234D1022830D90223002201325B002B
:100E60009842FBD812023243140080235B031D43D7
:100E70000B7A002B02D080239B031D43134A537827
:100E80005BB2002BFBDB124B9847124B1E700F4AD4
:100E900053785BB2002BFBDB0C4B9C601A00537841
:100EA0005BB2002BFBDB094A5368802149020B40EF
:100EB0001D435560084B984770BD0022D2E70402DD
:100EC000344380239B021D43D2E7C046000C004000
:100ED000250B0000080C0040650B000010B5040055
:100EE0000B4A53785BB2002BFBDB0A4B98470A4B4B
:100EF0001C70074A53785BB2002BFBDB044A516835
:100F000080235B020B435360044B984710BDC046DF
:100F1000000C0040250B0000040C0040650B000095
:100F200070B504001A4A53785BB2002BFBDB194BF7
:100F30009847194B1C70164A53785BB2002BFBDBA9
:100F4000134E7068C004C00E144B98470500124B36
:100F50001C707668F602F60F114B1C700C4A537821
:100F60005BB2002BFBDB0A4B9C682402240C0D4B6C
:100F70009847002E07D1012C07D9210028000A4BE1
:100F80009847050001E00134E540280070BDC046E7
:100F9000000C0040250B0000040C0040F10B000089
:100FA000080C0040650B0000A514000010B50400FB
:100FB000064B9847064B1C70064A53888021C9018E
:100FC0000B435380044B984710BDC046250B0000CF
:100FD000020C0040000C0040650B000010B504003E
:100FE0000F4B98470F4B1C700F4A53881B05180F67
:100FF00053880E490B40538053880D490B40538052
:1010000011008022D2014B881342FCD106494A8844
:1010100003020648024013434B80064B984710BD1D
:10102000250B0000020C0040000C0040FFF0FFFF09
:10103000FFBFFFFF650B000010B50C7824020443CE
:10104000024B9847A4B2024B5C8010BDDD0F00003C
:10105000000C004010B50400064B9847064B1C706E
:10106000064B5C882405240F054B98472000054B50
:10107000984710BD250B0000020C0040000C0040FA
:10108000650B0000210F000030B5D378002B35D15F
:101090001378802B29D01B068024640223435478C4
:1010A0000225AC4306D19478002C20D18024A402E0
:1010B000234341605478013C012C1CD90D042D0CB4
:1010C000A024E4052C431C4384620D0CD024240688
:1010D0002C431C438462D478002C22D15B031CD5A2
:1010E0009378012B1ED0416117E00023D7E7C0247D
:1010F000E4022343DDE70D4C2340DFE741600C04AD
:10110000240CA023DB05234383620C0CD0231B0695
:1011100023438362D378002B03D15378013B012B07
:1011200002D930BD8161F8E78160FAE7FFFFFBFF7C
:1011300010B50A00C1090023002904D14309DB01CD
:1011400005498C4663441F2420400121814018003A
:10115000024B984710BDC046004400418910000072
:101160007047000010B5054B9847054B9847054B55
:101170009847054B9847054B984710BD690D0000EF
:10118000950B000061110000CD010000611100000D
:10119000FEE70000F8B52A4A2A4B9A4211D01A00FD
:1011A000294B9A420DD2294A03339B1A9B080133DB
:1011B0009B000022234822498C58845004329A42D2
:1011C000FAD1234A234B9A420AD2D34321495B18CE
:1011D00003218B4304339B18002102C29342FCD1AC
:1011E0001D4AFF211D4B8B439360FD3990235B000B
:1011F0001B4AD1501B4AD3780325AB430224234317
:10120000D370D3780C27BB4308263343D370164BD7
:10121000987B30229043202210439873997BB943E6
:10122000314399739A7BAA4322439A730F4A5368B6
:1012300080210B4353600E4B98470E4B9847FEE7B7
:10124000CC17000000000020040000200400002053
:10125000040000204801002000ED00E00000000034
:101260000070004100500041004800410040004132
:1012700011160000A1130000094B1B6A1B0609D4BC
:101280008022D205074B5A61074A13780133DBB23B
:10129000137070478022D205024B9A61F4E7C04672
:1012A00000440041804400414400002010B584B057
:1012B00001AC2000074B984707230193002363608C
:1012C00001332372E37221000720034B984704B0D7
:1012D00010BDC046390200004D02000010B50022CA
:1012E00007210448044B984700210720034B9847E7
:1012F00010BDC04679120000150100004101000038
:1013000030B591B08023DB05009300230193FF22C9
:1013100069460A8100228B72CB72012124206C461F
:1013200021540130215425316354013163540A930F
:10133000053163540131635405932382E3762276A9
:10134000227762761323A3766277E1235B02089308
:1013500080235B0303930D4B0C930D4B0D930123E3
:101360005B420E930F930B4D0B4C6A460B492800C2
:10137000A0470028F9D1074B1A68D369002BFCD18C
:10138000136802210B43136011B030BD0200160038
:10139000020017009C000020ED060000001400422F
:1013A000F0B5DE4657464E464546E0B589B02F4B70
:1013B00098472F4B98472F4B98472F4B9847012220
:1013C0002E4B1A70BFF35F8F62B62D4B99460023E8
:1013D0009B466A46D371294B984601239A46474655
:1013E0004B466A46D2791A70434652461A70BFF38A
:1013F0005F8F62B6234B0393039B5A1E0392002B0D
:10140000FAD172B6BFF35F8F5B463B701C4B187806
:10141000C0B21D4D0A2229001C4B98471C4CA0222B
:10142000290020001B4DA84704A91B4B0A0041CBF3
:1014300041C2188810809B7893700B222000A84727
:10144000162102AB9C4661442000144B98470028AB
:10145000C6D1162502AB9C4665440D4C104E29881A
:101460002000B0470028FAD1BAE7C0466511000055
:1014700001130000AD120000DD120000000000208A
:101480004400002040420F00A80000208916000000
:101490009C000020690A000078170000050A00007F
:1014A000E1090000002243088B4274D303098B42F8
:1014B0005FD3030A8B4244D3030B8B4228D3030C24
:1014C0008B420DD3FF22090212BA030C8B4202D3C6
:1014D0001212090265D0030B8B4219D300E0090AEE
:1014E000C30B8B4201D3CB03C01A5241830B8B42F7
:1014F00001D38B03C01A5241430B8B4201D34B03E0
:10150000C01A5241030B8B4201D30B03C01A524144
:10151000C30A8B4201D3CB02C01A5241830A8B42C9
:1015200001D38B02C01A5241430A8B4201D34B02B2
:10153000C01A5241030A8B4201D30B02C01A524116
:10154000CDD2C3098B4201D3CB01C01A52418309CA
:101550008B4201D38B01C01A524143098B4201D304
:101560004B01C01A524103098B4201D30B01C01A2F
:101570005241C3088B4201D3CB00C01A52418308A9
:101580008B4201D38B00C01A524143088B4201D3D6
:101590004B00C01A5241411A00D201465241104636
:1015A0007047FFE701B5002000F006F802BDC04615
:1015B0000029F7D076E770477047C046F0B5CE46B1
:1015C000474615042D0C2E0080B50704140C3F0C63
:1015D0009946030C7E435D43674363437F19340C94
:1015E000E4199C46A54203D980235B029846C44473
:1015F0004B46514343433604360C250C24046544C2
:10160000A4195918491920000CBC90469946F0BD00
:1016100070B500260C4D0D4C641BA410A64209D1D8
:10162000002600F0C3F80A4D0A4C641BA410A64221
:1016300005D170BDB300EB5898470136EEE7B30013
:10164000EB5898470136F2E7B8170000B8170000CA
:10165000B8170000BC170000931E10B50C00222B19
:1016600004D900231C000B70200010BD0A2A09D1E8
:10167000002807DA2D230B7001214042611800F089
:1016800007F8F1E70021F9E710B5FFF7E5FF10BD16
:10169000F0B517008FB0252206000D0004A81849E8
:1016A00000F030F804AABB1E00240392222B05D9B7
:1016B0002C70250028000FB0F0BD019C631C019325
:1016C000EB1800933000013B39000293FFF770FFE5
:1016D000039B029A5B5C300013703900FFF7E2FE57
:1016E000061EEAD1009B18702B005A1B9442E1DDC4
:1016F0001A78295D19702A550133013CF5E7C04677
:1017000084170000002310B59A4200D110BDCC5CB4
:10171000C4540133F8E7000000080042000C004206
:10172000001000420014004200180042001C004259
:10173000020C0000FE0B0000FE0B0000640C000019
:10174000640C0000160C0000080C00001C0C0000CB
:10175000520C0000EC0C0000CC0C0000CC0C000083
:10176000580D0000DE0C0000FA0C0000D00C000048
:10177000080D0000480D0000202070756C73652076
:101780000D0A000030313233343536373839616272
:10179000636465666768696A6B6C6D6E6F707172A1
:1017A000737475767778797A00000000F8B5C046D2
:1017B000F8BC08BC9E467047DD000000F8B5C04686
:0C17C000F8BC08BC9E467047B500000055
:0417CC000100000018
:040000030000119553
:00000001FF
